{
	"contracts/ContratBail.sol": {
		"ContratBail": {
			"abi": [
				{
					"inputs": [
						{
							"internalType": "uint256",
							"name": "_montantLoyer",
							"type": "uint256"
						}
					],
					"stateMutability": "nonpayable",
					"type": "constructor"
				},
				{
					"anonymous": false,
					"inputs": [
						{
							"indexed": false,
							"internalType": "address",
							"name": "locataire",
							"type": "address"
						},
						{
							"indexed": false,
							"internalType": "uint256",
							"name": "montant",
							"type": "uint256"
						}
					],
					"name": "LoyerPaye",
					"type": "event"
				},
				{
					"inputs": [
						{
							"internalType": "address",
							"name": "_locataire",
							"type": "address"
						}
					],
					"name": "definirLocataire",
					"outputs": [],
					"stateMutability": "nonpayable",
					"type": "function"
				},
				{
					"inputs": [],
					"name": "locataire",
					"outputs": [
						{
							"internalType": "address",
							"name": "",
							"type": "address"
						}
					],
					"stateMutability": "view",
					"type": "function"
				},
				{
					"inputs": [],
					"name": "loyer",
					"outputs": [
						{
							"internalType": "uint256",
							"name": "",
							"type": "uint256"
						}
					],
					"stateMutability": "view",
					"type": "function"
				},
				{
					"inputs": [],
					"name": "loyerPaye",
					"outputs": [
						{
							"internalType": "bool",
							"name": "",
							"type": "bool"
						}
					],
					"stateMutability": "view",
					"type": "function"
				},
				{
					"inputs": [],
					"name": "nomContrat",
					"outputs": [
						{
							"internalType": "string",
							"name": "",
							"type": "string"
						}
					],
					"stateMutability": "view",
					"type": "function"
				},
				{
					"inputs": [],
					"name": "payerLoyer",
					"outputs": [],
					"stateMutability": "payable",
					"type": "function"
				},
				{
					"inputs": [],
					"name": "proprietaire",
					"outputs": [
						{
							"internalType": "address",
							"name": "",
							"type": "address"
						}
					],
					"stateMutability": "view",
					"type": "function"
				},
				{
					"inputs": [],
					"name": "retirerLoyer",
					"outputs": [],
					"stateMutability": "nonpayable",
					"type": "function"
				}
			],
			"devdoc": {
				"kind": "dev",
				"methods": {},
				"version": 1
			},
			"evm": {
				"assembly": "    /* \"contracts/ContratBail.sol\":25:1745  contract ContratBail {... */\n  mstore(0x40, 0x80)\n    /* \"contracts/ContratBail.sol\":52:112  string public nomContrat = \"Contrat de Bail avec Blockchain\" */\n  mload(0x40)\n  dup1\n  0x40\n  add\n  0x40\n  mstore\n  dup1\n  0x1f\n  dup2\n  mstore\n  0x20\n  add\n  0x436f6e74726174206465204261696c206176656320426c6f636b636861696e00\n  dup2\n  mstore\n  pop\n  0x00\n  swap1\n  dup2\n  tag_1\n  swap2\n  swap1\n  tag_2\n  jump\t// in\ntag_1:\n  pop\n    /* \"contracts/ContratBail.sol\":478:646  constructor(uint _montantLoyer) {... */\n  callvalue\n  dup1\n  iszero\n  tag_3\n  jumpi\n  revert(0x00, 0x00)\ntag_3:\n  pop\n  mload(0x40)\n  sub(codesize, bytecodeSize)\n  dup1\n  bytecodeSize\n  dup4\n  codecopy\n  dup2\n  dup2\n  add\n  0x40\n  mstore\n  dup2\n  add\n  swap1\n  tag_4\n  swap2\n  swap1\n  tag_5\n  jump\t// in\ntag_4:\n    /* \"contracts/ContratBail.sol\":535:545  msg.sender */\n  caller\n    /* \"contracts/ContratBail.sol\":520:532  proprietaire */\n  0x01\n  0x00\n    /* \"contracts/ContratBail.sol\":520:545  proprietaire = msg.sender */\n  0x0100\n  exp\n  dup2\n  sload\n  dup2\n  0xffffffffffffffffffffffffffffffffffffffff\n  mul\n  not\n  and\n  swap1\n  dup4\n  0xffffffffffffffffffffffffffffffffffffffff\n  and\n  mul\n  or\n  swap1\n  sstore\n  pop\n    /* \"contracts/ContratBail.sol\":563:576  _montantLoyer */\n  dup1\n    /* \"contracts/ContratBail.sol\":555:560  loyer */\n  0x03\n    /* \"contracts/ContratBail.sol\":555:576  loyer = _montantLoyer */\n  dup2\n  swap1\n  sstore\n  pop\n    /* \"contracts/ContratBail.sol\":634:639  false */\n  0x00\n    /* \"contracts/ContratBail.sol\":622:631  loyerPaye */\n  0x04\n  0x00\n    /* \"contracts/ContratBail.sol\":622:639  loyerPaye = false */\n  0x0100\n  exp\n  dup2\n  sload\n  dup2\n  0xff\n  mul\n  not\n  and\n  swap1\n  dup4\n  iszero\n  iszero\n  mul\n  or\n  swap1\n  sstore\n  pop\n    /* \"contracts/ContratBail.sol\":478:646  constructor(uint _montantLoyer) {... */\n  pop\n    /* \"contracts/ContratBail.sol\":25:1745  contract ContratBail {... */\n  jump(tag_8)\n    /* \"#utility.yul\":7:106   */\ntag_9:\n    /* \"#utility.yul\":59:65   */\n  0x00\n    /* \"#utility.yul\":93:98   */\n  dup2\n    /* \"#utility.yul\":87:99   */\n  mload\n    /* \"#utility.yul\":77:99   */\n  swap1\n  pop\n    /* \"#utility.yul\":7:106   */\n  swap2\n  swap1\n  pop\n  jump\t// out\n    /* \"#utility.yul\":112:292   */\ntag_10:\n    /* \"#utility.yul\":160:237   */\n  0x4e487b7100000000000000000000000000000000000000000000000000000000\n    /* \"#utility.yul\":157:158   */\n  0x00\n    /* \"#utility.yul\":150:238   */\n  mstore\n    /* \"#utility.yul\":257:261   */\n  0x41\n    /* \"#utility.yul\":254:255   */\n  0x04\n    /* \"#utility.yul\":247:262   */\n  mstore\n    /* \"#utility.yul\":281:285   */\n  0x24\n    /* \"#utility.yul\":278:279   */\n  0x00\n    /* \"#utility.yul\":271:286   */\n  revert\n    /* \"#utility.yul\":298:478   */\ntag_11:\n    /* \"#utility.yul\":346:423   */\n  0x4e487b7100000000000000000000000000000000000000000000000000000000\n    /* \"#utility.yul\":343:344   */\n  0x00\n    /* \"#utility.yul\":336:424   */\n  mstore\n    /* \"#utility.yul\":443:447   */\n  0x22\n    /* \"#utility.yul\":440:441   */\n  0x04\n    /* \"#utility.yul\":433:448   */\n  mstore\n    /* \"#utility.yul\":467:471   */\n  0x24\n    /* \"#utility.yul\":464:465   */\n  0x00\n    /* \"#utility.yul\":457:472   */\n  revert\n    /* \"#utility.yul\":484:804   */\ntag_12:\n    /* \"#utility.yul\":528:534   */\n  0x00\n    /* \"#utility.yul\":565:566   */\n  0x02\n    /* \"#utility.yul\":559:563   */\n  dup3\n    /* \"#utility.yul\":555:567   */\n  div\n    /* \"#utility.yul\":545:567   */\n  swap1\n  pop\n    /* \"#utility.yul\":612:613   */\n  0x01\n    /* \"#utility.yul\":606:610   */\n  dup3\n    /* \"#utility.yul\":602:614   */\n  and\n    /* \"#utility.yul\":633:651   */\n  dup1\n    /* \"#utility.yul\":623:704   */\n  tag_39\n  jumpi\n    /* \"#utility.yul\":689:693   */\n  0x7f\n    /* \"#utility.yul\":681:687   */\n  dup3\n    /* \"#utility.yul\":677:694   */\n  and\n    /* \"#utility.yul\":667:694   */\n  swap2\n  pop\n    /* \"#utility.yul\":623:704   */\ntag_39:\n    /* \"#utility.yul\":751:753   */\n  0x20\n    /* \"#utility.yul\":743:749   */\n  dup3\n    /* \"#utility.yul\":740:754   */\n  lt\n    /* \"#utility.yul\":720:738   */\n  dup2\n    /* \"#utility.yul\":717:755   */\n  sub\n    /* \"#utility.yul\":714:798   */\n  tag_40\n  jumpi\n    /* \"#utility.yul\":770:788   */\n  tag_41\n  tag_11\n  jump\t// in\ntag_41:\n    /* \"#utility.yul\":714:798   */\ntag_40:\n    /* \"#utility.yul\":535:804   */\n  pop\n    /* \"#utility.yul\":484:804   */\n  swap2\n  swap1\n  pop\n  jump\t// out\n    /* \"#utility.yul\":810:951   */\ntag_13:\n    /* \"#utility.yul\":859:863   */\n  0x00\n    /* \"#utility.yul\":882:885   */\n  dup2\n    /* \"#utility.yul\":874:885   */\n  swap1\n  pop\n    /* \"#utility.yul\":905:908   */\n  dup2\n    /* \"#utility.yul\":902:903   */\n  0x00\n    /* \"#utility.yul\":895:909   */\n  mstore\n    /* \"#utility.yul\":939:943   */\n  0x20\n    /* \"#utility.yul\":936:937   */\n  0x00\n    /* \"#utility.yul\":926:944   */\n  keccak256\n    /* \"#utility.yul\":918:944   */\n  swap1\n  pop\n    /* \"#utility.yul\":810:951   */\n  swap2\n  swap1\n  pop\n  jump\t// out\n    /* \"#utility.yul\":957:1050   */\ntag_14:\n    /* \"#utility.yul\":994:1000   */\n  0x00\n    /* \"#utility.yul\":1041:1043   */\n  0x20\n    /* \"#utility.yul\":1036:1038   */\n  0x1f\n    /* \"#utility.yul\":1029:1034   */\n  dup4\n    /* \"#utility.yul\":1025:1039   */\n  add\n    /* \"#utility.yul\":1021:1044   */\n  div\n    /* \"#utility.yul\":1011:1044   */\n  swap1\n  pop\n    /* \"#utility.yul\":957:1050   */\n  swap2\n  swap1\n  pop\n  jump\t// out\n    /* \"#utility.yul\":1056:1163   */\ntag_15:\n    /* \"#utility.yul\":1100:1108   */\n  0x00\n    /* \"#utility.yul\":1150:1155   */\n  dup3\n    /* \"#utility.yul\":1144:1148   */\n  dup3\n    /* \"#utility.yul\":1140:1156   */\n  shl\n    /* \"#utility.yul\":1119:1156   */\n  swap1\n  pop\n    /* \"#utility.yul\":1056:1163   */\n  swap3\n  swap2\n  pop\n  pop\n  jump\t// out\n    /* \"#utility.yul\":1169:1562   */\ntag_16:\n    /* \"#utility.yul\":1238:1244   */\n  0x00\n    /* \"#utility.yul\":1288:1289   */\n  0x08\n    /* \"#utility.yul\":1276:1286   */\n  dup4\n    /* \"#utility.yul\":1272:1290   */\n  mul\n    /* \"#utility.yul\":1311:1408   */\n  tag_46\n    /* \"#utility.yul\":1341:1407   */\n  0xffffffffffffffffffffffffffffffffffffffffffffffffffffffffffffffff\n    /* \"#utility.yul\":1330:1339   */\n  dup3\n    /* \"#utility.yul\":1311:1408   */\n  tag_15\n  jump\t// in\ntag_46:\n    /* \"#utility.yul\":1429:1468   */\n  tag_47\n    /* \"#utility.yul\":1459:1467   */\n  dup7\n    /* \"#utility.yul\":1448:1457   */\n  dup4\n    /* \"#utility.yul\":1429:1468   */\n  tag_15\n  jump\t// in\ntag_47:\n    /* \"#utility.yul\":1417:1468   */\n  swap6\n  pop\n    /* \"#utility.yul\":1501:1505   */\n  dup1\n    /* \"#utility.yul\":1497:1506   */\n  not\n    /* \"#utility.yul\":1490:1495   */\n  dup5\n    /* \"#utility.yul\":1486:1507   */\n  and\n    /* \"#utility.yul\":1477:1507   */\n  swap4\n  pop\n    /* \"#utility.yul\":1550:1554   */\n  dup1\n    /* \"#utility.yul\":1540:1548   */\n  dup7\n    /* \"#utility.yul\":1536:1555   */\n  and\n    /* \"#utility.yul\":1529:1534   */\n  dup5\n    /* \"#utility.yul\":1526:1556   */\n  or\n    /* \"#utility.yul\":1516:1556   */\n  swap3\n  pop\n    /* \"#utility.yul\":1245:1562   */\n  pop\n  pop\n    /* \"#utility.yul\":1169:1562   */\n  swap4\n  swap3\n  pop\n  pop\n  pop\n  jump\t// out\n    /* \"#utility.yul\":1568:1645   */\ntag_17:\n    /* \"#utility.yul\":1605:1612   */\n  0x00\n    /* \"#utility.yul\":1634:1639   */\n  dup2\n    /* \"#utility.yul\":1623:1639   */\n  swap1\n  pop\n    /* \"#utility.yul\":1568:1645   */\n  swap2\n  swap1\n  pop\n  jump\t// out\n    /* \"#utility.yul\":1651:1711   */\ntag_18:\n    /* \"#utility.yul\":1679:1682   */\n  0x00\n    /* \"#utility.yul\":1700:1705   */\n  dup2\n    /* \"#utility.yul\":1693:1705   */\n  swap1\n  pop\n    /* \"#utility.yul\":1651:1711   */\n  swap2\n  swap1\n  pop\n  jump\t// out\n    /* \"#utility.yul\":1717:1859   */\ntag_19:\n    /* \"#utility.yul\":1767:1776   */\n  0x00\n    /* \"#utility.yul\":1800:1853   */\n  tag_51\n    /* \"#utility.yul\":1818:1852   */\n  tag_52\n    /* \"#utility.yul\":1827:1851   */\n  tag_53\n    /* \"#utility.yul\":1845:1850   */\n  dup5\n    /* \"#utility.yul\":1827:1851   */\n  tag_17\n  jump\t// in\ntag_53:\n    /* \"#utility.yul\":1818:1852   */\n  tag_18\n  jump\t// in\ntag_52:\n    /* \"#utility.yul\":1800:1853   */\n  tag_17\n  jump\t// in\ntag_51:\n    /* \"#utility.yul\":1787:1853   */\n  swap1\n  pop\n    /* \"#utility.yul\":1717:1859   */\n  swap2\n  swap1\n  pop\n  jump\t// out\n    /* \"#utility.yul\":1865:1940   */\ntag_20:\n    /* \"#utility.yul\":1908:1911   */\n  0x00\n    /* \"#utility.yul\":1929:1934   */\n  dup2\n    /* \"#utility.yul\":1922:1934   */\n  swap1\n  pop\n    /* \"#utility.yul\":1865:1940   */\n  swap2\n  swap1\n  pop\n  jump\t// out\n    /* \"#utility.yul\":1946:2215   */\ntag_21:\n    /* \"#utility.yul\":2056:2095   */\n  tag_56\n    /* \"#utility.yul\":2087:2094   */\n  dup4\n    /* \"#utility.yul\":2056:2095   */\n  tag_19\n  jump\t// in\ntag_56:\n    /* \"#utility.yul\":2117:2208   */\n  tag_57\n    /* \"#utility.yul\":2166:2207   */\n  tag_58\n    /* \"#utility.yul\":2190:2206   */\n  dup3\n    /* \"#utility.yul\":2166:2207   */\n  tag_20\n  jump\t// in\ntag_58:\n    /* \"#utility.yul\":2158:2164   */\n  dup5\n    /* \"#utility.yul\":2151:2155   */\n  dup5\n    /* \"#utility.yul\":2145:2156   */\n  sload\n    /* \"#utility.yul\":2117:2208   */\n  tag_16\n  jump\t// in\ntag_57:\n    /* \"#utility.yul\":2111:2115   */\n  dup3\n    /* \"#utility.yul\":2104:2209   */\n  sstore\n    /* \"#utility.yul\":2022:2215   */\n  pop\n    /* \"#utility.yul\":1946:2215   */\n  pop\n  pop\n  pop\n  jump\t// out\n    /* \"#utility.yul\":2221:2294   */\ntag_22:\n    /* \"#utility.yul\":2266:2269   */\n  0x00\n    /* \"#utility.yul\":2287:2288   */\n  0x00\n    /* \"#utility.yul\":2280:2288   */\n  swap1\n  pop\n    /* \"#utility.yul\":2221:2294   */\n  swap1\n  jump\t// out\n    /* \"#utility.yul\":2300:2489   */\ntag_23:\n    /* \"#utility.yul\":2377:2409   */\n  tag_61\n  tag_22\n  jump\t// in\ntag_61:\n    /* \"#utility.yul\":2418:2483   */\n  tag_62\n    /* \"#utility.yul\":2476:2482   */\n  dup2\n    /* \"#utility.yul\":2468:2474   */\n  dup5\n    /* \"#utility.yul\":2462:2466   */\n  dup5\n    /* \"#utility.yul\":2418:2483   */\n  tag_21\n  jump\t// in\ntag_62:\n    /* \"#utility.yul\":2353:2489   */\n  pop\n    /* \"#utility.yul\":2300:2489   */\n  pop\n  pop\n  jump\t// out\n    /* \"#utility.yul\":2495:2709   */\ntag_24:\n    /* \"#utility.yul\":2580:2581   */\n  0x00\n    /* \"#utility.yul\":2565:2703   */\ntag_64:\n    /* \"#utility.yul\":2590:2599   */\n  dup3\n    /* \"#utility.yul\":2587:2588   */\n  dup2\n    /* \"#utility.yul\":2584:2600   */\n  lt\n    /* \"#utility.yul\":2565:2703   */\n  iszero\n  tag_66\n  jumpi\n    /* \"#utility.yul\":2642:2693   */\n  tag_67\n    /* \"#utility.yul\":2691:2692   */\n  0x00\n    /* \"#utility.yul\":2687:2688   */\n  dup3\n    /* \"#utility.yul\":2676:2685   */\n  dup5\n    /* \"#utility.yul\":2672:2689   */\n  add\n    /* \"#utility.yul\":2642:2693   */\n  tag_23\n  jump\t// in\ntag_67:\n    /* \"#utility.yul\":2615:2616   */\n  0x01\n    /* \"#utility.yul\":2612:2613   */\n  dup2\n    /* \"#utility.yul\":2608:2617   */\n  add\n    /* \"#utility.yul\":2603:2617   */\n  swap1\n  pop\n    /* \"#utility.yul\":2565:2703   */\n  jump(tag_64)\ntag_66:\n    /* \"#utility.yul\":2569:2583   */\n  pop\n    /* \"#utility.yul\":2495:2709   */\n  pop\n  pop\n  jump\t// out\n    /* \"#utility.yul\":2715:3461   */\ntag_25:\n    /* \"#utility.yul\":2816:2818   */\n  0x1f\n    /* \"#utility.yul\":2811:2814   */\n  dup3\n    /* \"#utility.yul\":2808:2819   */\n  gt\n    /* \"#utility.yul\":2805:3454   */\n  iszero\n  tag_69\n  jumpi\n    /* \"#utility.yul\":2845:2855   */\n  dup3\n    /* \"#utility.yul\":2840:2843   */\n  dup3\n    /* \"#utility.yul\":2837:2856   */\n  gt\n    /* \"#utility.yul\":2834:3444   */\n  iszero\n  tag_70\n  jumpi\n    /* \"#utility.yul\":2891:2929   */\n  tag_71\n    /* \"#utility.yul\":2923:2928   */\n  dup2\n    /* \"#utility.yul\":2891:2929   */\n  tag_13\n  jump\t// in\ntag_71:\n    /* \"#utility.yul\":2966:2988   */\n  tag_72\n    /* \"#utility.yul\":2984:2987   */\n  dup4\n    /* \"#utility.yul\":2966:2988   */\n  tag_14\n  jump\t// in\ntag_72:\n    /* \"#utility.yul\":3025:3054   */\n  tag_73\n    /* \"#utility.yul\":3043:3053   */\n  dup6\n    /* \"#utility.yul\":3025:3054   */\n  tag_14\n  jump\t// in\ntag_73:\n    /* \"#utility.yul\":3215:3217   */\n  0x20\n    /* \"#utility.yul\":3203:3213   */\n  dup7\n    /* \"#utility.yul\":3200:3218   */\n  lt\n    /* \"#utility.yul\":3197:3276   */\n  iszero\n  tag_74\n  jumpi\n    /* \"#utility.yul\":3257:3258   */\n  0x00\n    /* \"#utility.yul\":3241:3258   */\n  swap1\n  pop\n    /* \"#utility.yul\":3197:3276   */\ntag_74:\n    /* \"#utility.yul\":3326:3338   */\n  dup1\n    /* \"#utility.yul\":3316:3324   */\n  dup4\n    /* \"#utility.yul\":3312:3339   */\n  add\n    /* \"#utility.yul\":3356:3430   */\n  tag_75\n    /* \"#utility.yul\":3416:3428   */\n  dup3\n    /* \"#utility.yul\":3402:3414   */\n  dup5\n    /* \"#utility.yul\":3398:3429   */\n  sub\n    /* \"#utility.yul\":3385:3396   */\n  dup3\n    /* \"#utility.yul\":3356:3430   */\n  tag_24\n  jump\t// in\ntag_75:\n    /* \"#utility.yul\":2857:3444   */\n  pop\n  pop\n  pop\n  pop\n    /* \"#utility.yul\":2834:3444   */\ntag_70:\n    /* \"#utility.yul\":2805:3454   */\ntag_69:\n    /* \"#utility.yul\":2715:3461   */\n  pop\n  pop\n  pop\n  jump\t// out\n    /* \"#utility.yul\":3467:3584   */\ntag_26:\n    /* \"#utility.yul\":3521:3529   */\n  0x00\n    /* \"#utility.yul\":3571:3576   */\n  dup3\n    /* \"#utility.yul\":3565:3569   */\n  dup3\n    /* \"#utility.yul\":3561:3577   */\n  shr\n    /* \"#utility.yul\":3540:3577   */\n  swap1\n  pop\n    /* \"#utility.yul\":3467:3584   */\n  swap3\n  swap2\n  pop\n  pop\n  jump\t// out\n    /* \"#utility.yul\":3590:3759   */\ntag_27:\n    /* \"#utility.yul\":3634:3640   */\n  0x00\n    /* \"#utility.yul\":3667:3718   */\n  tag_78\n    /* \"#utility.yul\":3715:3716   */\n  0x00\n    /* \"#utility.yul\":3711:3717   */\n  not\n    /* \"#utility.yul\":3703:3708   */\n  dup5\n    /* \"#utility.yul\":3700:3701   */\n  0x08\n    /* \"#utility.yul\":3696:3709   */\n  mul\n    /* \"#utility.yul\":3667:3718   */\n  tag_26\n  jump\t// in\ntag_78:\n    /* \"#utility.yul\":3663:3719   */\n  not\n    /* \"#utility.yul\":3748:3752   */\n  dup1\n    /* \"#utility.yul\":3742:3746   */\n  dup4\n    /* \"#utility.yul\":3738:3753   */\n  and\n    /* \"#utility.yul\":3728:3753   */\n  swap2\n  pop\n    /* \"#utility.yul\":3641:3759   */\n  pop\n    /* \"#utility.yul\":3590:3759   */\n  swap3\n  swap2\n  pop\n  pop\n  jump\t// out\n    /* \"#utility.yul\":3764:4059   */\ntag_28:\n    /* \"#utility.yul\":3840:3844   */\n  0x00\n    /* \"#utility.yul\":3986:4015   */\n  tag_80\n    /* \"#utility.yul\":4011:4014   */\n  dup4\n    /* \"#utility.yul\":4005:4009   */\n  dup4\n    /* \"#utility.yul\":3986:4015   */\n  tag_27\n  jump\t// in\ntag_80:\n    /* \"#utility.yul\":3978:4015   */\n  swap2\n  pop\n    /* \"#utility.yul\":4048:4051   */\n  dup3\n    /* \"#utility.yul\":4045:4046   */\n  0x02\n    /* \"#utility.yul\":4041:4052   */\n  mul\n    /* \"#utility.yul\":4035:4039   */\n  dup3\n    /* \"#utility.yul\":4032:4053   */\n  or\n    /* \"#utility.yul\":4024:4053   */\n  swap1\n  pop\n    /* \"#utility.yul\":3764:4059   */\n  swap3\n  swap2\n  pop\n  pop\n  jump\t// out\n    /* \"#utility.yul\":4064:5459   */\ntag_2:\n    /* \"#utility.yul\":4181:4218   */\n  tag_82\n    /* \"#utility.yul\":4214:4217   */\n  dup3\n    /* \"#utility.yul\":4181:4218   */\n  tag_9\n  jump\t// in\ntag_82:\n    /* \"#utility.yul\":4283:4301   */\n  0xffffffffffffffff\n    /* \"#utility.yul\":4275:4281   */\n  dup2\n    /* \"#utility.yul\":4272:4302   */\n  gt\n    /* \"#utility.yul\":4269:4325   */\n  iszero\n  tag_83\n  jumpi\n    /* \"#utility.yul\":4305:4323   */\n  tag_84\n  tag_10\n  jump\t// in\ntag_84:\n    /* \"#utility.yul\":4269:4325   */\ntag_83:\n    /* \"#utility.yul\":4349:4387   */\n  tag_85\n    /* \"#utility.yul\":4381:4385   */\n  dup3\n    /* \"#utility.yul\":4375:4386   */\n  sload\n    /* \"#utility.yul\":4349:4387   */\n  tag_12\n  jump\t// in\ntag_85:\n    /* \"#utility.yul\":4434:4501   */\n  tag_86\n    /* \"#utility.yul\":4494:4500   */\n  dup3\n    /* \"#utility.yul\":4486:4492   */\n  dup3\n    /* \"#utility.yul\":4480:4484   */\n  dup6\n    /* \"#utility.yul\":4434:4501   */\n  tag_25\n  jump\t// in\ntag_86:\n    /* \"#utility.yul\":4528:4529   */\n  0x00\n    /* \"#utility.yul\":4552:4556   */\n  0x20\n    /* \"#utility.yul\":4539:4556   */\n  swap1\n  pop\n    /* \"#utility.yul\":4584:4586   */\n  0x1f\n    /* \"#utility.yul\":4576:4582   */\n  dup4\n    /* \"#utility.yul\":4573:4587   */\n  gt\n    /* \"#utility.yul\":4601:4602   */\n  0x01\n    /* \"#utility.yul\":4596:5214   */\n  dup2\n  eq\n  tag_88\n  jumpi\n    /* \"#utility.yul\":5258:5259   */\n  0x00\n    /* \"#utility.yul\":5275:5281   */\n  dup5\n    /* \"#utility.yul\":5272:5349   */\n  iszero\n  tag_89\n  jumpi\n    /* \"#utility.yul\":5324:5333   */\n  dup3\n    /* \"#utility.yul\":5319:5322   */\n  dup8\n    /* \"#utility.yul\":5315:5334   */\n  add\n    /* \"#utility.yul\":5309:5335   */\n  mload\n    /* \"#utility.yul\":5300:5335   */\n  swap1\n  pop\n    /* \"#utility.yul\":5272:5349   */\ntag_89:\n    /* \"#utility.yul\":5375:5442   */\n  tag_90\n    /* \"#utility.yul\":5435:5441   */\n  dup6\n    /* \"#utility.yul\":5428:5433   */\n  dup3\n    /* \"#utility.yul\":5375:5442   */\n  tag_28\n  jump\t// in\ntag_90:\n    /* \"#utility.yul\":5369:5373   */\n  dup7\n    /* \"#utility.yul\":5362:5443   */\n  sstore\n    /* \"#utility.yul\":5231:5453   */\n  pop\n    /* \"#utility.yul\":4566:5453   */\n  jump(tag_87)\n    /* \"#utility.yul\":4596:5214   */\ntag_88:\n    /* \"#utility.yul\":4648:4652   */\n  0x1f\n    /* \"#utility.yul\":4644:4653   */\n  not\n    /* \"#utility.yul\":4636:4642   */\n  dup5\n    /* \"#utility.yul\":4632:4654   */\n  and\n    /* \"#utility.yul\":4682:4719   */\n  tag_91\n    /* \"#utility.yul\":4714:4718   */\n  dup7\n    /* \"#utility.yul\":4682:4719   */\n  tag_13\n  jump\t// in\ntag_91:\n    /* \"#utility.yul\":4741:4742   */\n  0x00\n    /* \"#utility.yul\":4755:4963   */\ntag_92:\n    /* \"#utility.yul\":4769:4776   */\n  dup3\n    /* \"#utility.yul\":4766:4767   */\n  dup2\n    /* \"#utility.yul\":4763:4777   */\n  lt\n    /* \"#utility.yul\":4755:4963   */\n  iszero\n  tag_94\n  jumpi\n    /* \"#utility.yul\":4848:4857   */\n  dup5\n    /* \"#utility.yul\":4843:4846   */\n  dup10\n    /* \"#utility.yul\":4839:4858   */\n  add\n    /* \"#utility.yul\":4833:4859   */\n  mload\n    /* \"#utility.yul\":4825:4831   */\n  dup3\n    /* \"#utility.yul\":4818:4860   */\n  sstore\n    /* \"#utility.yul\":4899:4900   */\n  0x01\n    /* \"#utility.yul\":4891:4897   */\n  dup3\n    /* \"#utility.yul\":4887:4901   */\n  add\n    /* \"#utility.yul\":4877:4901   */\n  swap2\n  pop\n    /* \"#utility.yul\":4946:4948   */\n  0x20\n    /* \"#utility.yul\":4935:4944   */\n  dup6\n    /* \"#utility.yul\":4931:4949   */\n  add\n    /* \"#utility.yul\":4918:4949   */\n  swap5\n  pop\n    /* \"#utility.yul\":4792:4796   */\n  0x20\n    /* \"#utility.yul\":4789:4790   */\n  dup2\n    /* \"#utility.yul\":4785:4797   */\n  add\n    /* \"#utility.yul\":4780:4797   */\n  swap1\n  pop\n    /* \"#utility.yul\":4755:4963   */\n  jump(tag_92)\ntag_94:\n    /* \"#utility.yul\":4991:4997   */\n  dup7\n    /* \"#utility.yul\":4982:4989   */\n  dup4\n    /* \"#utility.yul\":4979:4998   */\n  lt\n    /* \"#utility.yul\":4976:5155   */\n  iszero\n  tag_95\n  jumpi\n    /* \"#utility.yul\":5049:5058   */\n  dup5\n    /* \"#utility.yul\":5044:5047   */\n  dup10\n    /* \"#utility.yul\":5040:5059   */\n  add\n    /* \"#utility.yul\":5034:5060   */\n  mload\n    /* \"#utility.yul\":5092:5140   */\n  tag_96\n    /* \"#utility.yul\":5134:5138   */\n  0x1f\n    /* \"#utility.yul\":5126:5132   */\n  dup10\n    /* \"#utility.yul\":5122:5139   */\n  and\n    /* \"#utility.yul\":5111:5120   */\n  dup3\n    /* \"#utility.yul\":5092:5140   */\n  tag_27\n  jump\t// in\ntag_96:\n    /* \"#utility.yul\":5084:5090   */\n  dup4\n    /* \"#utility.yul\":5077:5141   */\n  sstore\n    /* \"#utility.yul\":4999:5155   */\n  pop\n    /* \"#utility.yul\":4976:5155   */\ntag_95:\n    /* \"#utility.yul\":5201:5202   */\n  0x01\n    /* \"#utility.yul\":5197:5198   */\n  0x02\n    /* \"#utility.yul\":5189:5195   */\n  dup9\n    /* \"#utility.yul\":5185:5199   */\n  mul\n    /* \"#utility.yul\":5181:5203   */\n  add\n    /* \"#utility.yul\":5175:5179   */\n  dup9\n    /* \"#utility.yul\":5168:5204   */\n  sstore\n    /* \"#utility.yul\":4603:5214   */\n  pop\n  pop\n  pop\n    /* \"#utility.yul\":4566:5453   */\ntag_87:\n  pop\n    /* \"#utility.yul\":4156:5459   */\n  pop\n  pop\n  pop\n    /* \"#utility.yul\":4064:5459   */\n  pop\n  pop\n  jump\t// out\n    /* \"#utility.yul\":5546:5663   */\ntag_30:\n    /* \"#utility.yul\":5655:5656   */\n  0x00\n    /* \"#utility.yul\":5652:5653   */\n  0x00\n    /* \"#utility.yul\":5645:5657   */\n  revert\n    /* \"#utility.yul\":5792:5914   */\ntag_32:\n    /* \"#utility.yul\":5865:5889   */\n  tag_101\n    /* \"#utility.yul\":5883:5888   */\n  dup2\n    /* \"#utility.yul\":5865:5889   */\n  tag_17\n  jump\t// in\ntag_101:\n    /* \"#utility.yul\":5858:5863   */\n  dup2\n    /* \"#utility.yul\":5855:5890   */\n  eq\n    /* \"#utility.yul\":5845:5908   */\n  tag_102\n  jumpi\n    /* \"#utility.yul\":5904:5905   */\n  0x00\n    /* \"#utility.yul\":5901:5902   */\n  0x00\n    /* \"#utility.yul\":5894:5906   */\n  revert\n    /* \"#utility.yul\":5845:5908   */\ntag_102:\n    /* \"#utility.yul\":5792:5914   */\n  pop\n  jump\t// out\n    /* \"#utility.yul\":5920:6063   */\ntag_33:\n    /* \"#utility.yul\":5977:5982   */\n  0x00\n    /* \"#utility.yul\":6008:6014   */\n  dup2\n    /* \"#utility.yul\":6002:6015   */\n  mload\n    /* \"#utility.yul\":5993:6015   */\n  swap1\n  pop\n    /* \"#utility.yul\":6024:6057   */\n  tag_104\n    /* \"#utility.yul\":6051:6056   */\n  dup2\n    /* \"#utility.yul\":6024:6057   */\n  tag_32\n  jump\t// in\ntag_104:\n    /* \"#utility.yul\":5920:6063   */\n  swap3\n  swap2\n  pop\n  pop\n  jump\t// out\n    /* \"#utility.yul\":6069:6420   */\ntag_5:\n    /* \"#utility.yul\":6139:6145   */\n  0x00\n    /* \"#utility.yul\":6188:6190   */\n  0x20\n    /* \"#utility.yul\":6176:6185   */\n  dup3\n    /* \"#utility.yul\":6167:6174   */\n  dup5\n    /* \"#utility.yul\":6163:6186   */\n  sub\n    /* \"#utility.yul\":6159:6191   */\n  slt\n    /* \"#utility.yul\":6156:6275   */\n  iszero\n  tag_106\n  jumpi\n    /* \"#utility.yul\":6194:6273   */\n  tag_107\n  tag_30\n  jump\t// in\ntag_107:\n    /* \"#utility.yul\":6156:6275   */\ntag_106:\n    /* \"#utility.yul\":6314:6315   */\n  0x00\n    /* \"#utility.yul\":6339:6403   */\n  tag_108\n    /* \"#utility.yul\":6395:6402   */\n  dup5\n    /* \"#utility.yul\":6386:6392   */\n  dup3\n    /* \"#utility.yul\":6375:6384   */\n  dup6\n    /* \"#utility.yul\":6371:6393   */\n  add\n    /* \"#utility.yul\":6339:6403   */\n  tag_33\n  jump\t// in\ntag_108:\n    /* \"#utility.yul\":6329:6403   */\n  swap2\n  pop\n    /* \"#utility.yul\":6285:6413   */\n  pop\n    /* \"#utility.yul\":6069:6420   */\n  swap3\n  swap2\n  pop\n  pop\n  jump\t// out\n    /* \"contracts/ContratBail.sol\":25:1745  contract ContratBail {... */\ntag_8:\n  dataSize(sub_0)\n  dup1\n  dataOffset(sub_0)\n  0x00\n  codecopy\n  0x00\n  return\nstop\n\nsub_0: assembly {\n        /* \"contracts/ContratBail.sol\":25:1745  contract ContratBail {... */\n      mstore(0x40, 0x80)\n      jumpi(tag_1, lt(calldatasize, 0x04))\n      shr(0xe0, calldataload(0x00))\n      dup1\n      0x8f154697\n      gt\n      tag_10\n      jumpi\n      dup1\n      0x8f154697\n      eq\n      tag_6\n      jumpi\n      dup1\n      0xb06e7d62\n      eq\n      tag_7\n      jumpi\n      dup1\n      0xb3a4aebf\n      eq\n      tag_8\n      jumpi\n      dup1\n      0xb947172f\n      eq\n      tag_9\n      jumpi\n      jump(tag_1)\n    tag_10:\n      dup1\n      0x0b01e57c\n      eq\n      tag_2\n      jumpi\n      dup1\n      0x24be4cc1\n      eq\n      tag_3\n      jumpi\n      dup1\n      0x6c9e012e\n      eq\n      tag_4\n      jumpi\n      dup1\n      0x79583ee5\n      eq\n      tag_5\n      jumpi\n    tag_1:\n      revert(0x00, 0x00)\n        /* \"contracts/ContratBail.sol\":652:919  function definirLocataire(address _locataire) public {... */\n    tag_2:\n      callvalue\n      dup1\n      iszero\n      tag_11\n      jumpi\n      revert(0x00, 0x00)\n    tag_11:\n      pop\n      tag_12\n      0x04\n      dup1\n      calldatasize\n      sub\n      dup2\n      add\n      swap1\n      tag_13\n      swap2\n      swap1\n      tag_14\n      jump\t// in\n    tag_13:\n      tag_15\n      jump\t// in\n    tag_12:\n      stop\n        /* \"contracts/ContratBail.sol\":925:1279  function payerLoyer() public payable {... */\n    tag_3:\n      tag_16\n      tag_17\n      jump\t// in\n    tag_16:\n      stop\n        /* \"contracts/ContratBail.sol\":52:112  string public nomContrat = \"Contrat de Bail avec Blockchain\" */\n    tag_4:\n      callvalue\n      dup1\n      iszero\n      tag_18\n      jumpi\n      revert(0x00, 0x00)\n    tag_18:\n      pop\n      tag_19\n      tag_20\n      jump\t// in\n    tag_19:\n      mload(0x40)\n      tag_21\n      swap2\n      swap1\n      tag_22\n      jump\t// in\n    tag_21:\n      mload(0x40)\n      dup1\n      swap2\n      sub\n      swap1\n      return\n        /* \"contracts/ContratBail.sol\":155:182  address public proprietaire */\n    tag_5:\n      callvalue\n      dup1\n      iszero\n      tag_23\n      jumpi\n      revert(0x00, 0x00)\n    tag_23:\n      pop\n      tag_24\n      tag_25\n      jump\t// in\n    tag_24:\n      mload(0x40)\n      tag_26\n      swap2\n      swap1\n      tag_27\n      jump\t// in\n    tag_26:\n      mload(0x40)\n      dup1\n      swap2\n      sub\n      swap1\n      return\n        /* \"contracts/ContratBail.sol\":1286:1737  function retirerLoyer() public {... */\n    tag_6:\n      callvalue\n      dup1\n      iszero\n      tag_28\n      jumpi\n      revert(0x00, 0x00)\n    tag_28:\n      pop\n      tag_29\n      tag_30\n      jump\t// in\n    tag_29:\n      stop\n        /* \"contracts/ContratBail.sol\":188:212  address public locataire */\n    tag_7:\n      callvalue\n      dup1\n      iszero\n      tag_31\n      jumpi\n      revert(0x00, 0x00)\n    tag_31:\n      pop\n      tag_32\n      tag_33\n      jump\t// in\n    tag_32:\n      mload(0x40)\n      tag_34\n      swap2\n      swap1\n      tag_27\n      jump\t// in\n    tag_34:\n      mload(0x40)\n      dup1\n      swap2\n      sub\n      swap1\n      return\n        /* \"contracts/ContratBail.sol\":359:380  bool public loyerPaye */\n    tag_8:\n      callvalue\n      dup1\n      iszero\n      tag_35\n      jumpi\n      revert(0x00, 0x00)\n    tag_35:\n      pop\n      tag_36\n      tag_37\n      jump\t// in\n    tag_36:\n      mload(0x40)\n      tag_38\n      swap2\n      swap1\n      tag_39\n      jump\t// in\n    tag_38:\n      mload(0x40)\n      dup1\n      swap2\n      sub\n      swap1\n      return\n        /* \"contracts/ContratBail.sol\":274:291  uint public loyer */\n    tag_9:\n      callvalue\n      dup1\n      iszero\n      tag_40\n      jumpi\n      revert(0x00, 0x00)\n    tag_40:\n      pop\n      tag_41\n      tag_42\n      jump\t// in\n    tag_41:\n      mload(0x40)\n      tag_43\n      swap2\n      swap1\n      tag_44\n      jump\t// in\n    tag_43:\n      mload(0x40)\n      dup1\n      swap2\n      sub\n      swap1\n      return\n        /* \"contracts/ContratBail.sol\":652:919  function definirLocataire(address _locataire) public {... */\n    tag_15:\n        /* \"contracts/ContratBail.sol\":816:828  proprietaire */\n      0x01\n      0x00\n      swap1\n      sload\n      swap1\n      0x0100\n      exp\n      swap1\n      div\n      0xffffffffffffffffffffffffffffffffffffffff\n      and\n        /* \"contracts/ContratBail.sol\":802:828  msg.sender == proprietaire */\n      0xffffffffffffffffffffffffffffffffffffffff\n      and\n        /* \"contracts/ContratBail.sol\":802:812  msg.sender */\n      caller\n        /* \"contracts/ContratBail.sol\":802:828  msg.sender == proprietaire */\n      0xffffffffffffffffffffffffffffffffffffffff\n      and\n      eq\n        /* \"contracts/ContratBail.sol\":794:880  require(msg.sender == proprietaire, \"Seul le proprietaire peut designer le locataire\") */\n      tag_46\n      jumpi\n      mload(0x40)\n      0x08c379a000000000000000000000000000000000000000000000000000000000\n      dup2\n      mstore\n      0x04\n      add\n      tag_47\n      swap1\n      tag_48\n      jump\t// in\n    tag_47:\n      mload(0x40)\n      dup1\n      swap2\n      sub\n      swap1\n      revert\n    tag_46:\n        /* \"contracts/ContratBail.sol\":902:912  _locataire */\n      dup1\n        /* \"contracts/ContratBail.sol\":890:899  locataire */\n      0x02\n      0x00\n        /* \"contracts/ContratBail.sol\":890:912  locataire = _locataire */\n      0x0100\n      exp\n      dup2\n      sload\n      dup2\n      0xffffffffffffffffffffffffffffffffffffffff\n      mul\n      not\n      and\n      swap1\n      dup4\n      0xffffffffffffffffffffffffffffffffffffffff\n      and\n      mul\n      or\n      swap1\n      sstore\n      pop\n        /* \"contracts/ContratBail.sol\":652:919  function definirLocataire(address _locataire) public {... */\n      pop\n      jump\t// out\n        /* \"contracts/ContratBail.sol\":925:1279  function payerLoyer() public payable {... */\n    tag_17:\n        /* \"contracts/ContratBail.sol\":994:1003  locataire */\n      0x02\n      0x00\n      swap1\n      sload\n      swap1\n      0x0100\n      exp\n      swap1\n      div\n      0xffffffffffffffffffffffffffffffffffffffff\n      and\n        /* \"contracts/ContratBail.sol\":980:1003  msg.sender == locataire */\n      0xffffffffffffffffffffffffffffffffffffffff\n      and\n        /* \"contracts/ContratBail.sol\":980:990  msg.sender */\n      caller\n        /* \"contracts/ContratBail.sol\":980:1003  msg.sender == locataire */\n      0xffffffffffffffffffffffffffffffffffffffff\n      and\n      eq\n        /* \"contracts/ContratBail.sol\":972:1036  require(msg.sender == locataire, \"Seul le locataire peut payer\") */\n      tag_50\n      jumpi\n      mload(0x40)\n      0x08c379a000000000000000000000000000000000000000000000000000000000\n      dup2\n      mstore\n      0x04\n      add\n      tag_51\n      swap1\n      tag_52\n      jump\t// in\n    tag_51:\n      mload(0x40)\n      dup1\n      swap2\n      sub\n      swap1\n      revert\n    tag_50:\n        /* \"contracts/ContratBail.sol\":1067:1072  loyer */\n      sload(0x03)\n        /* \"contracts/ContratBail.sol\":1054:1063  msg.value */\n      callvalue\n        /* \"contracts/ContratBail.sol\":1054:1072  msg.value == loyer */\n      eq\n        /* \"contracts/ContratBail.sol\":1046:1114  require(msg.value == loyer, \"Le montant doit correspondre au loyer\") */\n      tag_53\n      jumpi\n      mload(0x40)\n      0x08c379a000000000000000000000000000000000000000000000000000000000\n      dup2\n      mstore\n      0x04\n      add\n      tag_54\n      swap1\n      tag_55\n      jump\t// in\n    tag_54:\n      mload(0x40)\n      dup1\n      swap2\n      sub\n      swap1\n      revert\n    tag_53:\n        /* \"contracts/ContratBail.sol\":1145:1150  false */\n      0x00\n        /* \"contracts/ContratBail.sol\":1132:1150  loyerPaye == false */\n      iszero\n      iszero\n        /* \"contracts/ContratBail.sol\":1132:1141  loyerPaye */\n      0x04\n      0x00\n      swap1\n      sload\n      swap1\n      0x0100\n      exp\n      swap1\n      div\n      0xff\n      and\n        /* \"contracts/ContratBail.sol\":1132:1150  loyerPaye == false */\n      iszero\n      iszero\n      eq\n        /* \"contracts/ContratBail.sol\":1124:1170  require(loyerPaye == false, \"Loyer deja paye\") */\n      tag_56\n      jumpi\n      mload(0x40)\n      0x08c379a000000000000000000000000000000000000000000000000000000000\n      dup2\n      mstore\n      0x04\n      add\n      tag_57\n      swap1\n      tag_58\n      jump\t// in\n    tag_57:\n      mload(0x40)\n      dup1\n      swap2\n      sub\n      swap1\n      revert\n    tag_56:\n        /* \"contracts/ContratBail.sol\":1193:1197  true */\n      0x01\n        /* \"contracts/ContratBail.sol\":1181:1190  loyerPaye */\n      0x04\n      0x00\n        /* \"contracts/ContratBail.sol\":1181:1197  loyerPaye = true */\n      0x0100\n      exp\n      dup2\n      sload\n      dup2\n      0xff\n      mul\n      not\n      and\n      swap1\n      dup4\n      iszero\n      iszero\n      mul\n      or\n      swap1\n      sstore\n      pop\n        /* \"contracts/ContratBail.sol\":1212:1244  LoyerPaye(msg.sender, msg.value) */\n      0x1169ad9445c717b3b005cb9744e884d1faf4779529112821fcac84ada358593c\n        /* \"contracts/ContratBail.sol\":1222:1232  msg.sender */\n      caller\n        /* \"contracts/ContratBail.sol\":1234:1243  msg.value */\n      callvalue\n        /* \"contracts/ContratBail.sol\":1212:1244  LoyerPaye(msg.sender, msg.value) */\n      mload(0x40)\n      tag_59\n      swap3\n      swap2\n      swap1\n      tag_60\n      jump\t// in\n    tag_59:\n      mload(0x40)\n      dup1\n      swap2\n      sub\n      swap1\n      log1\n        /* \"contracts/ContratBail.sol\":925:1279  function payerLoyer() public payable {... */\n      jump\t// out\n        /* \"contracts/ContratBail.sol\":52:112  string public nomContrat = \"Contrat de Bail avec Blockchain\" */\n    tag_20:\n      0x00\n      dup1\n      sload\n      tag_61\n      swap1\n      tag_62\n      jump\t// in\n    tag_61:\n      dup1\n      0x1f\n      add\n      0x20\n      dup1\n      swap2\n      div\n      mul\n      0x20\n      add\n      mload(0x40)\n      swap1\n      dup2\n      add\n      0x40\n      mstore\n      dup1\n      swap3\n      swap2\n      swap1\n      dup2\n      dup2\n      mstore\n      0x20\n      add\n      dup3\n      dup1\n      sload\n      tag_63\n      swap1\n      tag_62\n      jump\t// in\n    tag_63:\n      dup1\n      iszero\n      tag_64\n      jumpi\n      dup1\n      0x1f\n      lt\n      tag_65\n      jumpi\n      0x0100\n      dup1\n      dup4\n      sload\n      div\n      mul\n      dup4\n      mstore\n      swap2\n      0x20\n      add\n      swap2\n      jump(tag_64)\n    tag_65:\n      dup3\n      add\n      swap2\n      swap1\n      0x00\n      mstore\n      keccak256(0x00, 0x20)\n      swap1\n    tag_66:\n      dup2\n      sload\n      dup2\n      mstore\n      swap1\n      0x01\n      add\n      swap1\n      0x20\n      add\n      dup1\n      dup4\n      gt\n      tag_66\n      jumpi\n      dup3\n      swap1\n      sub\n      0x1f\n      and\n      dup3\n      add\n      swap2\n    tag_64:\n      pop\n      pop\n      pop\n      pop\n      pop\n      dup2\n      jump\t// out\n        /* \"contracts/ContratBail.sol\":155:182  address public proprietaire */\n    tag_25:\n      0x01\n      0x00\n      swap1\n      sload\n      swap1\n      0x0100\n      exp\n      swap1\n      div\n      0xffffffffffffffffffffffffffffffffffffffff\n      and\n      dup2\n      jump\t// out\n        /* \"contracts/ContratBail.sol\":1286:1737  function retirerLoyer() public {... */\n    tag_30:\n        /* \"contracts/ContratBail.sol\":1349:1361  proprietaire */\n      0x01\n      0x00\n      swap1\n      sload\n      swap1\n      0x0100\n      exp\n      swap1\n      div\n      0xffffffffffffffffffffffffffffffffffffffff\n      and\n        /* \"contracts/ContratBail.sol\":1335:1361  msg.sender == proprietaire */\n      0xffffffffffffffffffffffffffffffffffffffff\n      and\n        /* \"contracts/ContratBail.sol\":1335:1345  msg.sender */\n      caller\n        /* \"contracts/ContratBail.sol\":1335:1361  msg.sender == proprietaire */\n      0xffffffffffffffffffffffffffffffffffffffff\n      and\n      eq\n        /* \"contracts/ContratBail.sol\":1327:1399  require(msg.sender == proprietaire, \"Seul le proprietaire peut retirer\") */\n      tag_68\n      jumpi\n      mload(0x40)\n      0x08c379a000000000000000000000000000000000000000000000000000000000\n      dup2\n      mstore\n      0x04\n      add\n      tag_69\n      swap1\n      tag_70\n      jump\t// in\n    tag_69:\n      mload(0x40)\n      dup1\n      swap2\n      sub\n      swap1\n      revert\n    tag_68:\n        /* \"contracts/ContratBail.sol\":1430:1434  true */\n      0x01\n        /* \"contracts/ContratBail.sol\":1417:1434  loyerPaye == true */\n      iszero\n      iszero\n        /* \"contracts/ContratBail.sol\":1417:1426  loyerPaye */\n      0x04\n      0x00\n      swap1\n      sload\n      swap1\n      0x0100\n      exp\n      swap1\n      div\n      0xff\n      and\n        /* \"contracts/ContratBail.sol\":1417:1434  loyerPaye == true */\n      iszero\n      iszero\n      eq\n        /* \"contracts/ContratBail.sol\":1409:1471  require(loyerPaye == true, \"Le loyer n'a pas encore ete paye\") */\n      tag_71\n      jumpi\n      mload(0x40)\n      0x08c379a000000000000000000000000000000000000000000000000000000000\n      dup2\n      mstore\n      0x04\n      add\n      tag_72\n      swap1\n      tag_73\n      jump\t// in\n    tag_72:\n      mload(0x40)\n      dup1\n      swap2\n      sub\n      swap1\n      revert\n    tag_71:\n        /* \"contracts/ContratBail.sol\":1482:1494  uint montant */\n      0x00\n        /* \"contracts/ContratBail.sol\":1497:1518  address(this).balance */\n      selfbalance\n        /* \"contracts/ContratBail.sol\":1482:1518  uint montant = address(this).balance */\n      swap1\n      pop\n        /* \"contracts/ContratBail.sol\":1585:1590  false */\n      0x00\n        /* \"contracts/ContratBail.sol\":1573:1582  loyerPaye */\n      0x04\n      0x00\n        /* \"contracts/ContratBail.sol\":1573:1590  loyerPaye = false */\n      0x0100\n      exp\n      dup2\n      sload\n      dup2\n      0xff\n      mul\n      not\n      and\n      swap1\n      dup4\n      iszero\n      iszero\n      mul\n      or\n      swap1\n      sstore\n      pop\n        /* \"contracts/ContratBail.sol\":1699:1711  proprietaire */\n      0x01\n      0x00\n      swap1\n      sload\n      swap1\n      0x0100\n      exp\n      swap1\n      div\n      0xffffffffffffffffffffffffffffffffffffffff\n      and\n        /* \"contracts/ContratBail.sol\":1691:1721  payable(proprietaire).transfer */\n      0xffffffffffffffffffffffffffffffffffffffff\n      and\n        /* \"contracts/ContratBail.sol\":1691:1730  payable(proprietaire).transfer(montant) */\n      0x08fc\n        /* \"contracts/ContratBail.sol\":1722:1729  montant */\n      dup3\n        /* \"contracts/ContratBail.sol\":1691:1730  payable(proprietaire).transfer(montant) */\n      swap1\n      dup2\n      iszero\n      mul\n      swap1\n      mload(0x40)\n      0x00\n      mload(0x40)\n      dup1\n      dup4\n      sub\n      dup2\n      dup6\n      dup9\n      dup9\n      call\n      swap4\n      pop\n      pop\n      pop\n      pop\n      iszero\n      dup1\n      iszero\n      tag_75\n      jumpi\n      returndatacopy(0x00, 0x00, returndatasize)\n      revert(0x00, returndatasize)\n    tag_75:\n      pop\n        /* \"contracts/ContratBail.sol\":1317:1737  {... */\n      pop\n        /* \"contracts/ContratBail.sol\":1286:1737  function retirerLoyer() public {... */\n      jump\t// out\n        /* \"contracts/ContratBail.sol\":188:212  address public locataire */\n    tag_33:\n      0x02\n      0x00\n      swap1\n      sload\n      swap1\n      0x0100\n      exp\n      swap1\n      div\n      0xffffffffffffffffffffffffffffffffffffffff\n      and\n      dup2\n      jump\t// out\n        /* \"contracts/ContratBail.sol\":359:380  bool public loyerPaye */\n    tag_37:\n      0x04\n      0x00\n      swap1\n      sload\n      swap1\n      0x0100\n      exp\n      swap1\n      div\n      0xff\n      and\n      dup2\n      jump\t// out\n        /* \"contracts/ContratBail.sol\":274:291  uint public loyer */\n    tag_42:\n      sload(0x03)\n      dup2\n      jump\t// out\n        /* \"#utility.yul\":88:205   */\n    tag_77:\n        /* \"#utility.yul\":197:198   */\n      0x00\n        /* \"#utility.yul\":194:195   */\n      0x00\n        /* \"#utility.yul\":187:199   */\n      revert\n        /* \"#utility.yul\":334:460   */\n    tag_79:\n        /* \"#utility.yul\":371:378   */\n      0x00\n        /* \"#utility.yul\":411:453   */\n      0xffffffffffffffffffffffffffffffffffffffff\n        /* \"#utility.yul\":404:409   */\n      dup3\n        /* \"#utility.yul\":400:454   */\n      and\n        /* \"#utility.yul\":389:454   */\n      swap1\n      pop\n        /* \"#utility.yul\":334:460   */\n      swap2\n      swap1\n      pop\n      jump\t// out\n        /* \"#utility.yul\":466:562   */\n    tag_80:\n        /* \"#utility.yul\":503:510   */\n      0x00\n        /* \"#utility.yul\":532:556   */\n      tag_112\n        /* \"#utility.yul\":550:555   */\n      dup3\n        /* \"#utility.yul\":532:556   */\n      tag_79\n      jump\t// in\n    tag_112:\n        /* \"#utility.yul\":521:556   */\n      swap1\n      pop\n        /* \"#utility.yul\":466:562   */\n      swap2\n      swap1\n      pop\n      jump\t// out\n        /* \"#utility.yul\":568:690   */\n    tag_81:\n        /* \"#utility.yul\":641:665   */\n      tag_114\n        /* \"#utility.yul\":659:664   */\n      dup2\n        /* \"#utility.yul\":641:665   */\n      tag_80\n      jump\t// in\n    tag_114:\n        /* \"#utility.yul\":634:639   */\n      dup2\n        /* \"#utility.yul\":631:666   */\n      eq\n        /* \"#utility.yul\":621:684   */\n      tag_115\n      jumpi\n        /* \"#utility.yul\":680:681   */\n      0x00\n        /* \"#utility.yul\":677:678   */\n      0x00\n        /* \"#utility.yul\":670:682   */\n      revert\n        /* \"#utility.yul\":621:684   */\n    tag_115:\n        /* \"#utility.yul\":568:690   */\n      pop\n      jump\t// out\n        /* \"#utility.yul\":696:835   */\n    tag_82:\n        /* \"#utility.yul\":742:747   */\n      0x00\n        /* \"#utility.yul\":780:786   */\n      dup2\n        /* \"#utility.yul\":767:787   */\n      calldataload\n        /* \"#utility.yul\":758:787   */\n      swap1\n      pop\n        /* \"#utility.yul\":796:829   */\n      tag_117\n        /* \"#utility.yul\":823:828   */\n      dup2\n        /* \"#utility.yul\":796:829   */\n      tag_81\n      jump\t// in\n    tag_117:\n        /* \"#utility.yul\":696:835   */\n      swap3\n      swap2\n      pop\n      pop\n      jump\t// out\n        /* \"#utility.yul\":841:1170   */\n    tag_14:\n        /* \"#utility.yul\":900:906   */\n      0x00\n        /* \"#utility.yul\":949:951   */\n      0x20\n        /* \"#utility.yul\":937:946   */\n      dup3\n        /* \"#utility.yul\":928:935   */\n      dup5\n        /* \"#utility.yul\":924:947   */\n      sub\n        /* \"#utility.yul\":920:952   */\n      slt\n        /* \"#utility.yul\":917:1036   */\n      iszero\n      tag_119\n      jumpi\n        /* \"#utility.yul\":955:1034   */\n      tag_120\n      tag_77\n      jump\t// in\n    tag_120:\n        /* \"#utility.yul\":917:1036   */\n    tag_119:\n        /* \"#utility.yul\":1075:1076   */\n      0x00\n        /* \"#utility.yul\":1100:1153   */\n      tag_121\n        /* \"#utility.yul\":1145:1152   */\n      dup5\n        /* \"#utility.yul\":1136:1142   */\n      dup3\n        /* \"#utility.yul\":1125:1134   */\n      dup6\n        /* \"#utility.yul\":1121:1143   */\n      add\n        /* \"#utility.yul\":1100:1153   */\n      tag_82\n      jump\t// in\n    tag_121:\n        /* \"#utility.yul\":1090:1153   */\n      swap2\n      pop\n        /* \"#utility.yul\":1046:1163   */\n      pop\n        /* \"#utility.yul\":841:1170   */\n      swap3\n      swap2\n      pop\n      pop\n      jump\t// out\n        /* \"#utility.yul\":1176:1275   */\n    tag_83:\n        /* \"#utility.yul\":1228:1234   */\n      0x00\n        /* \"#utility.yul\":1262:1267   */\n      dup2\n        /* \"#utility.yul\":1256:1268   */\n      mload\n        /* \"#utility.yul\":1246:1268   */\n      swap1\n      pop\n        /* \"#utility.yul\":1176:1275   */\n      swap2\n      swap1\n      pop\n      jump\t// out\n        /* \"#utility.yul\":1281:1450   */\n    tag_84:\n        /* \"#utility.yul\":1365:1376   */\n      0x00\n        /* \"#utility.yul\":1399:1405   */\n      dup3\n        /* \"#utility.yul\":1394:1397   */\n      dup3\n        /* \"#utility.yul\":1387:1406   */\n      mstore\n        /* \"#utility.yul\":1439:1443   */\n      0x20\n        /* \"#utility.yul\":1434:1437   */\n      dup3\n        /* \"#utility.yul\":1430:1444   */\n      add\n        /* \"#utility.yul\":1415:1444   */\n      swap1\n      pop\n        /* \"#utility.yul\":1281:1450   */\n      swap3\n      swap2\n      pop\n      pop\n      jump\t// out\n        /* \"#utility.yul\":1456:1595   */\n    tag_85:\n        /* \"#utility.yul\":1545:1551   */\n      dup3\n        /* \"#utility.yul\":1540:1543   */\n      dup2\n        /* \"#utility.yul\":1535:1538   */\n      dup4\n        /* \"#utility.yul\":1529:1552   */\n      mcopy\n        /* \"#utility.yul\":1586:1587   */\n      0x00\n        /* \"#utility.yul\":1577:1583   */\n      dup4\n        /* \"#utility.yul\":1572:1575   */\n      dup4\n        /* \"#utility.yul\":1568:1584   */\n      add\n        /* \"#utility.yul\":1561:1588   */\n      mstore\n        /* \"#utility.yul\":1456:1595   */\n      pop\n      pop\n      pop\n      jump\t// out\n        /* \"#utility.yul\":1601:1703   */\n    tag_86:\n        /* \"#utility.yul\":1642:1648   */\n      0x00\n        /* \"#utility.yul\":1693:1695   */\n      0x1f\n        /* \"#utility.yul\":1689:1696   */\n      not\n        /* \"#utility.yul\":1684:1686   */\n      0x1f\n        /* \"#utility.yul\":1677:1682   */\n      dup4\n        /* \"#utility.yul\":1673:1687   */\n      add\n        /* \"#utility.yul\":1669:1697   */\n      and\n        /* \"#utility.yul\":1659:1697   */\n      swap1\n      pop\n        /* \"#utility.yul\":1601:1703   */\n      swap2\n      swap1\n      pop\n      jump\t// out\n        /* \"#utility.yul\":1709:2086   */\n    tag_87:\n        /* \"#utility.yul\":1797:1800   */\n      0x00\n        /* \"#utility.yul\":1825:1864   */\n      tag_127\n        /* \"#utility.yul\":1858:1863   */\n      dup3\n        /* \"#utility.yul\":1825:1864   */\n      tag_83\n      jump\t// in\n    tag_127:\n        /* \"#utility.yul\":1880:1951   */\n      tag_128\n        /* \"#utility.yul\":1944:1950   */\n      dup2\n        /* \"#utility.yul\":1939:1942   */\n      dup6\n        /* \"#utility.yul\":1880:1951   */\n      tag_84\n      jump\t// in\n    tag_128:\n        /* \"#utility.yul\":1873:1951   */\n      swap4\n      pop\n        /* \"#utility.yul\":1960:2025   */\n      tag_129\n        /* \"#utility.yul\":2018:2024   */\n      dup2\n        /* \"#utility.yul\":2013:2016   */\n      dup6\n        /* \"#utility.yul\":2006:2010   */\n      0x20\n        /* \"#utility.yul\":1999:2004   */\n      dup7\n        /* \"#utility.yul\":1995:2011   */\n      add\n        /* \"#utility.yul\":1960:2025   */\n      tag_85\n      jump\t// in\n    tag_129:\n        /* \"#utility.yul\":2050:2079   */\n      tag_130\n        /* \"#utility.yul\":2072:2078   */\n      dup2\n        /* \"#utility.yul\":2050:2079   */\n      tag_86\n      jump\t// in\n    tag_130:\n        /* \"#utility.yul\":2045:2048   */\n      dup5\n        /* \"#utility.yul\":2041:2080   */\n      add\n        /* \"#utility.yul\":2034:2080   */\n      swap2\n      pop\n        /* \"#utility.yul\":1801:2086   */\n      pop\n        /* \"#utility.yul\":1709:2086   */\n      swap3\n      swap2\n      pop\n      pop\n      jump\t// out\n        /* \"#utility.yul\":2092:2405   */\n    tag_22:\n        /* \"#utility.yul\":2205:2209   */\n      0x00\n        /* \"#utility.yul\":2243:2245   */\n      0x20\n        /* \"#utility.yul\":2232:2241   */\n      dup3\n        /* \"#utility.yul\":2228:2246   */\n      add\n        /* \"#utility.yul\":2220:2246   */\n      swap1\n      pop\n        /* \"#utility.yul\":2292:2301   */\n      dup2\n        /* \"#utility.yul\":2286:2290   */\n      dup2\n        /* \"#utility.yul\":2282:2302   */\n      sub\n        /* \"#utility.yul\":2278:2279   */\n      0x00\n        /* \"#utility.yul\":2267:2276   */\n      dup4\n        /* \"#utility.yul\":2263:2280   */\n      add\n        /* \"#utility.yul\":2256:2303   */\n      mstore\n        /* \"#utility.yul\":2320:2398   */\n      tag_132\n        /* \"#utility.yul\":2393:2397   */\n      dup2\n        /* \"#utility.yul\":2384:2390   */\n      dup5\n        /* \"#utility.yul\":2320:2398   */\n      tag_87\n      jump\t// in\n    tag_132:\n        /* \"#utility.yul\":2312:2398   */\n      swap1\n      pop\n        /* \"#utility.yul\":2092:2405   */\n      swap3\n      swap2\n      pop\n      pop\n      jump\t// out\n        /* \"#utility.yul\":2411:2529   */\n    tag_88:\n        /* \"#utility.yul\":2498:2522   */\n      tag_134\n        /* \"#utility.yul\":2516:2521   */\n      dup2\n        /* \"#utility.yul\":2498:2522   */\n      tag_80\n      jump\t// in\n    tag_134:\n        /* \"#utility.yul\":2493:2496   */\n      dup3\n        /* \"#utility.yul\":2486:2523   */\n      mstore\n        /* \"#utility.yul\":2411:2529   */\n      pop\n      pop\n      jump\t// out\n        /* \"#utility.yul\":2535:2757   */\n    tag_27:\n        /* \"#utility.yul\":2628:2632   */\n      0x00\n        /* \"#utility.yul\":2666:2668   */\n      0x20\n        /* \"#utility.yul\":2655:2664   */\n      dup3\n        /* \"#utility.yul\":2651:2669   */\n      add\n        /* \"#utility.yul\":2643:2669   */\n      swap1\n      pop\n        /* \"#utility.yul\":2679:2750   */\n      tag_136\n        /* \"#utility.yul\":2747:2748   */\n      0x00\n        /* \"#utility.yul\":2736:2745   */\n      dup4\n        /* \"#utility.yul\":2732:2749   */\n      add\n        /* \"#utility.yul\":2723:2729   */\n      dup5\n        /* \"#utility.yul\":2679:2750   */\n      tag_88\n      jump\t// in\n    tag_136:\n        /* \"#utility.yul\":2535:2757   */\n      swap3\n      swap2\n      pop\n      pop\n      jump\t// out\n        /* \"#utility.yul\":2763:2853   */\n    tag_89:\n        /* \"#utility.yul\":2797:2804   */\n      0x00\n        /* \"#utility.yul\":2840:2845   */\n      dup2\n        /* \"#utility.yul\":2833:2846   */\n      iszero\n        /* \"#utility.yul\":2826:2847   */\n      iszero\n        /* \"#utility.yul\":2815:2847   */\n      swap1\n      pop\n        /* \"#utility.yul\":2763:2853   */\n      swap2\n      swap1\n      pop\n      jump\t// out\n        /* \"#utility.yul\":2859:2968   */\n    tag_90:\n        /* \"#utility.yul\":2940:2961   */\n      tag_139\n        /* \"#utility.yul\":2955:2960   */\n      dup2\n        /* \"#utility.yul\":2940:2961   */\n      tag_89\n      jump\t// in\n    tag_139:\n        /* \"#utility.yul\":2935:2938   */\n      dup3\n        /* \"#utility.yul\":2928:2962   */\n      mstore\n        /* \"#utility.yul\":2859:2968   */\n      pop\n      pop\n      jump\t// out\n        /* \"#utility.yul\":2974:3184   */\n    tag_39:\n        /* \"#utility.yul\":3061:3065   */\n      0x00\n        /* \"#utility.yul\":3099:3101   */\n      0x20\n        /* \"#utility.yul\":3088:3097   */\n      dup3\n        /* \"#utility.yul\":3084:3102   */\n      add\n        /* \"#utility.yul\":3076:3102   */\n      swap1\n      pop\n        /* \"#utility.yul\":3112:3177   */\n      tag_141\n        /* \"#utility.yul\":3174:3175   */\n      0x00\n        /* \"#utility.yul\":3163:3172   */\n      dup4\n        /* \"#utility.yul\":3159:3176   */\n      add\n        /* \"#utility.yul\":3150:3156   */\n      dup5\n        /* \"#utility.yul\":3112:3177   */\n      tag_90\n      jump\t// in\n    tag_141:\n        /* \"#utility.yul\":2974:3184   */\n      swap3\n      swap2\n      pop\n      pop\n      jump\t// out\n        /* \"#utility.yul\":3190:3267   */\n    tag_91:\n        /* \"#utility.yul\":3227:3234   */\n      0x00\n        /* \"#utility.yul\":3256:3261   */\n      dup2\n        /* \"#utility.yul\":3245:3261   */\n      swap1\n      pop\n        /* \"#utility.yul\":3190:3267   */\n      swap2\n      swap1\n      pop\n      jump\t// out\n        /* \"#utility.yul\":3273:3391   */\n    tag_92:\n        /* \"#utility.yul\":3360:3384   */\n      tag_144\n        /* \"#utility.yul\":3378:3383   */\n      dup2\n        /* \"#utility.yul\":3360:3384   */\n      tag_91\n      jump\t// in\n    tag_144:\n        /* \"#utility.yul\":3355:3358   */\n      dup3\n        /* \"#utility.yul\":3348:3385   */\n      mstore\n        /* \"#utility.yul\":3273:3391   */\n      pop\n      pop\n      jump\t// out\n        /* \"#utility.yul\":3397:3619   */\n    tag_44:\n        /* \"#utility.yul\":3490:3494   */\n      0x00\n        /* \"#utility.yul\":3528:3530   */\n      0x20\n        /* \"#utility.yul\":3517:3526   */\n      dup3\n        /* \"#utility.yul\":3513:3531   */\n      add\n        /* \"#utility.yul\":3505:3531   */\n      swap1\n      pop\n        /* \"#utility.yul\":3541:3612   */\n      tag_146\n        /* \"#utility.yul\":3609:3610   */\n      0x00\n        /* \"#utility.yul\":3598:3607   */\n      dup4\n        /* \"#utility.yul\":3594:3611   */\n      add\n        /* \"#utility.yul\":3585:3591   */\n      dup5\n        /* \"#utility.yul\":3541:3612   */\n      tag_92\n      jump\t// in\n    tag_146:\n        /* \"#utility.yul\":3397:3619   */\n      swap3\n      swap2\n      pop\n      pop\n      jump\t// out\n        /* \"#utility.yul\":3625:3859   */\n    tag_93:\n        /* \"#utility.yul\":3765:3799   */\n      0x5365756c206c652070726f70726965746169726520706575742064657369676e\n        /* \"#utility.yul\":3761:3762   */\n      0x00\n        /* \"#utility.yul\":3753:3759   */\n      dup3\n        /* \"#utility.yul\":3749:3763   */\n      add\n        /* \"#utility.yul\":3742:3800   */\n      mstore\n        /* \"#utility.yul\":3834:3851   */\n      0x6572206c65206c6f636174616972650000000000000000000000000000000000\n        /* \"#utility.yul\":3829:3831   */\n      0x20\n        /* \"#utility.yul\":3821:3827   */\n      dup3\n        /* \"#utility.yul\":3817:3832   */\n      add\n        /* \"#utility.yul\":3810:3852   */\n      mstore\n        /* \"#utility.yul\":3625:3859   */\n      pop\n      jump\t// out\n        /* \"#utility.yul\":3865:4231   */\n    tag_94:\n        /* \"#utility.yul\":4007:4010   */\n      0x00\n        /* \"#utility.yul\":4028:4095   */\n      tag_149\n        /* \"#utility.yul\":4092:4094   */\n      0x2f\n        /* \"#utility.yul\":4087:4090   */\n      dup4\n        /* \"#utility.yul\":4028:4095   */\n      tag_84\n      jump\t// in\n    tag_149:\n        /* \"#utility.yul\":4021:4095   */\n      swap2\n      pop\n        /* \"#utility.yul\":4104:4197   */\n      tag_150\n        /* \"#utility.yul\":4193:4196   */\n      dup3\n        /* \"#utility.yul\":4104:4197   */\n      tag_93\n      jump\t// in\n    tag_150:\n        /* \"#utility.yul\":4222:4224   */\n      0x40\n        /* \"#utility.yul\":4217:4220   */\n      dup3\n        /* \"#utility.yul\":4213:4225   */\n      add\n        /* \"#utility.yul\":4206:4225   */\n      swap1\n      pop\n        /* \"#utility.yul\":3865:4231   */\n      swap2\n      swap1\n      pop\n      jump\t// out\n        /* \"#utility.yul\":4237:4656   */\n    tag_48:\n        /* \"#utility.yul\":4403:4407   */\n      0x00\n        /* \"#utility.yul\":4441:4443   */\n      0x20\n        /* \"#utility.yul\":4430:4439   */\n      dup3\n        /* \"#utility.yul\":4426:4444   */\n      add\n        /* \"#utility.yul\":4418:4444   */\n      swap1\n      pop\n        /* \"#utility.yul\":4490:4499   */\n      dup2\n        /* \"#utility.yul\":4484:4488   */\n      dup2\n        /* \"#utility.yul\":4480:4500   */\n      sub\n        /* \"#utility.yul\":4476:4477   */\n      0x00\n        /* \"#utility.yul\":4465:4474   */\n      dup4\n        /* \"#utility.yul\":4461:4478   */\n      add\n        /* \"#utility.yul\":4454:4501   */\n      mstore\n        /* \"#utility.yul\":4518:4649   */\n      tag_152\n        /* \"#utility.yul\":4644:4648   */\n      dup2\n        /* \"#utility.yul\":4518:4649   */\n      tag_94\n      jump\t// in\n    tag_152:\n        /* \"#utility.yul\":4510:4649   */\n      swap1\n      pop\n        /* \"#utility.yul\":4237:4656   */\n      swap2\n      swap1\n      pop\n      jump\t// out\n        /* \"#utility.yul\":4662:4840   */\n    tag_95:\n        /* \"#utility.yul\":4802:4832   */\n      0x5365756c206c65206c6f63617461697265207065757420706179657200000000\n        /* \"#utility.yul\":4798:4799   */\n      0x00\n        /* \"#utility.yul\":4790:4796   */\n      dup3\n        /* \"#utility.yul\":4786:4800   */\n      add\n        /* \"#utility.yul\":4779:4833   */\n      mstore\n        /* \"#utility.yul\":4662:4840   */\n      pop\n      jump\t// out\n        /* \"#utility.yul\":4846:5212   */\n    tag_96:\n        /* \"#utility.yul\":4988:4991   */\n      0x00\n        /* \"#utility.yul\":5009:5076   */\n      tag_155\n        /* \"#utility.yul\":5073:5075   */\n      0x1c\n        /* \"#utility.yul\":5068:5071   */\n      dup4\n        /* \"#utility.yul\":5009:5076   */\n      tag_84\n      jump\t// in\n    tag_155:\n        /* \"#utility.yul\":5002:5076   */\n      swap2\n      pop\n        /* \"#utility.yul\":5085:5178   */\n      tag_156\n        /* \"#utility.yul\":5174:5177   */\n      dup3\n        /* \"#utility.yul\":5085:5178   */\n      tag_95\n      jump\t// in\n    tag_156:\n        /* \"#utility.yul\":5203:5205   */\n      0x20\n        /* \"#utility.yul\":5198:5201   */\n      dup3\n        /* \"#utility.yul\":5194:5206   */\n      add\n        /* \"#utility.yul\":5187:5206   */\n      swap1\n      pop\n        /* \"#utility.yul\":4846:5212   */\n      swap2\n      swap1\n      pop\n      jump\t// out\n        /* \"#utility.yul\":5218:5637   */\n    tag_52:\n        /* \"#utility.yul\":5384:5388   */\n      0x00\n        /* \"#utility.yul\":5422:5424   */\n      0x20\n        /* \"#utility.yul\":5411:5420   */\n      dup3\n        /* \"#utility.yul\":5407:5425   */\n      add\n        /* \"#utility.yul\":5399:5425   */\n      swap1\n      pop\n        /* \"#utility.yul\":5471:5480   */\n      dup2\n        /* \"#utility.yul\":5465:5469   */\n      dup2\n        /* \"#utility.yul\":5461:5481   */\n      sub\n        /* \"#utility.yul\":5457:5458   */\n      0x00\n        /* \"#utility.yul\":5446:5455   */\n      dup4\n        /* \"#utility.yul\":5442:5459   */\n      add\n        /* \"#utility.yul\":5435:5482   */\n      mstore\n        /* \"#utility.yul\":5499:5630   */\n      tag_158\n        /* \"#utility.yul\":5625:5629   */\n      dup2\n        /* \"#utility.yul\":5499:5630   */\n      tag_96\n      jump\t// in\n    tag_158:\n        /* \"#utility.yul\":5491:5630   */\n      swap1\n      pop\n        /* \"#utility.yul\":5218:5637   */\n      swap2\n      swap1\n      pop\n      jump\t// out\n        /* \"#utility.yul\":5643:5867   */\n    tag_97:\n        /* \"#utility.yul\":5783:5817   */\n      0x4c65206d6f6e74616e7420646f697420636f72726573706f6e64726520617520\n        /* \"#utility.yul\":5779:5780   */\n      0x00\n        /* \"#utility.yul\":5771:5777   */\n      dup3\n        /* \"#utility.yul\":5767:5781   */\n      add\n        /* \"#utility.yul\":5760:5818   */\n      mstore\n        /* \"#utility.yul\":5852:5859   */\n      0x6c6f796572000000000000000000000000000000000000000000000000000000\n        /* \"#utility.yul\":5847:5849   */\n      0x20\n        /* \"#utility.yul\":5839:5845   */\n      dup3\n        /* \"#utility.yul\":5835:5850   */\n      add\n        /* \"#utility.yul\":5828:5860   */\n      mstore\n        /* \"#utility.yul\":5643:5867   */\n      pop\n      jump\t// out\n        /* \"#utility.yul\":5873:6239   */\n    tag_98:\n        /* \"#utility.yul\":6015:6018   */\n      0x00\n        /* \"#utility.yul\":6036:6103   */\n      tag_161\n        /* \"#utility.yul\":6100:6102   */\n      0x25\n        /* \"#utility.yul\":6095:6098   */\n      dup4\n        /* \"#utility.yul\":6036:6103   */\n      tag_84\n      jump\t// in\n    tag_161:\n        /* \"#utility.yul\":6029:6103   */\n      swap2\n      pop\n        /* \"#utility.yul\":6112:6205   */\n      tag_162\n        /* \"#utility.yul\":6201:6204   */\n      dup3\n        /* \"#utility.yul\":6112:6205   */\n      tag_97\n      jump\t// in\n    tag_162:\n        /* \"#utility.yul\":6230:6232   */\n      0x40\n        /* \"#utility.yul\":6225:6228   */\n      dup3\n        /* \"#utility.yul\":6221:6233   */\n      add\n        /* \"#utility.yul\":6214:6233   */\n      swap1\n      pop\n        /* \"#utility.yul\":5873:6239   */\n      swap2\n      swap1\n      pop\n      jump\t// out\n        /* \"#utility.yul\":6245:6664   */\n    tag_55:\n        /* \"#utility.yul\":6411:6415   */\n      0x00\n        /* \"#utility.yul\":6449:6451   */\n      0x20\n        /* \"#utility.yul\":6438:6447   */\n      dup3\n        /* \"#utility.yul\":6434:6452   */\n      add\n        /* \"#utility.yul\":6426:6452   */\n      swap1\n      pop\n        /* \"#utility.yul\":6498:6507   */\n      dup2\n        /* \"#utility.yul\":6492:6496   */\n      dup2\n        /* \"#utility.yul\":6488:6508   */\n      sub\n        /* \"#utility.yul\":6484:6485   */\n      0x00\n        /* \"#utility.yul\":6473:6482   */\n      dup4\n        /* \"#utility.yul\":6469:6486   */\n      add\n        /* \"#utility.yul\":6462:6509   */\n      mstore\n        /* \"#utility.yul\":6526:6657   */\n      tag_164\n        /* \"#utility.yul\":6652:6656   */\n      dup2\n        /* \"#utility.yul\":6526:6657   */\n      tag_98\n      jump\t// in\n    tag_164:\n        /* \"#utility.yul\":6518:6657   */\n      swap1\n      pop\n        /* \"#utility.yul\":6245:6664   */\n      swap2\n      swap1\n      pop\n      jump\t// out\n        /* \"#utility.yul\":6670:6835   */\n    tag_99:\n        /* \"#utility.yul\":6810:6827   */\n      0x4c6f7965722064656a6120706179650000000000000000000000000000000000\n        /* \"#utility.yul\":6806:6807   */\n      0x00\n        /* \"#utility.yul\":6798:6804   */\n      dup3\n        /* \"#utility.yul\":6794:6808   */\n      add\n        /* \"#utility.yul\":6787:6828   */\n      mstore\n        /* \"#utility.yul\":6670:6835   */\n      pop\n      jump\t// out\n        /* \"#utility.yul\":6841:7207   */\n    tag_100:\n        /* \"#utility.yul\":6983:6986   */\n      0x00\n        /* \"#utility.yul\":7004:7071   */\n      tag_167\n        /* \"#utility.yul\":7068:7070   */\n      0x0f\n        /* \"#utility.yul\":7063:7066   */\n      dup4\n        /* \"#utility.yul\":7004:7071   */\n      tag_84\n      jump\t// in\n    tag_167:\n        /* \"#utility.yul\":6997:7071   */\n      swap2\n      pop\n        /* \"#utility.yul\":7080:7173   */\n      tag_168\n        /* \"#utility.yul\":7169:7172   */\n      dup3\n        /* \"#utility.yul\":7080:7173   */\n      tag_99\n      jump\t// in\n    tag_168:\n        /* \"#utility.yul\":7198:7200   */\n      0x20\n        /* \"#utility.yul\":7193:7196   */\n      dup3\n        /* \"#utility.yul\":7189:7201   */\n      add\n        /* \"#utility.yul\":7182:7201   */\n      swap1\n      pop\n        /* \"#utility.yul\":6841:7207   */\n      swap2\n      swap1\n      pop\n      jump\t// out\n        /* \"#utility.yul\":7213:7632   */\n    tag_58:\n        /* \"#utility.yul\":7379:7383   */\n      0x00\n        /* \"#utility.yul\":7417:7419   */\n      0x20\n        /* \"#utility.yul\":7406:7415   */\n      dup3\n        /* \"#utility.yul\":7402:7420   */\n      add\n        /* \"#utility.yul\":7394:7420   */\n      swap1\n      pop\n        /* \"#utility.yul\":7466:7475   */\n      dup2\n        /* \"#utility.yul\":7460:7464   */\n      dup2\n        /* \"#utility.yul\":7456:7476   */\n      sub\n        /* \"#utility.yul\":7452:7453   */\n      0x00\n        /* \"#utility.yul\":7441:7450   */\n      dup4\n        /* \"#utility.yul\":7437:7454   */\n      add\n        /* \"#utility.yul\":7430:7477   */\n      mstore\n        /* \"#utility.yul\":7494:7625   */\n      tag_170\n        /* \"#utility.yul\":7620:7624   */\n      dup2\n        /* \"#utility.yul\":7494:7625   */\n      tag_100\n      jump\t// in\n    tag_170:\n        /* \"#utility.yul\":7486:7625   */\n      swap1\n      pop\n        /* \"#utility.yul\":7213:7632   */\n      swap2\n      swap1\n      pop\n      jump\t// out\n        /* \"#utility.yul\":7638:7970   */\n    tag_60:\n        /* \"#utility.yul\":7759:7763   */\n      0x00\n        /* \"#utility.yul\":7797:7799   */\n      0x40\n        /* \"#utility.yul\":7786:7795   */\n      dup3\n        /* \"#utility.yul\":7782:7800   */\n      add\n        /* \"#utility.yul\":7774:7800   */\n      swap1\n      pop\n        /* \"#utility.yul\":7810:7881   */\n      tag_172\n        /* \"#utility.yul\":7878:7879   */\n      0x00\n        /* \"#utility.yul\":7867:7876   */\n      dup4\n        /* \"#utility.yul\":7863:7880   */\n      add\n        /* \"#utility.yul\":7854:7860   */\n      dup6\n        /* \"#utility.yul\":7810:7881   */\n      tag_88\n      jump\t// in\n    tag_172:\n        /* \"#utility.yul\":7891:7963   */\n      tag_173\n        /* \"#utility.yul\":7959:7961   */\n      0x20\n        /* \"#utility.yul\":7948:7957   */\n      dup4\n        /* \"#utility.yul\":7944:7962   */\n      add\n        /* \"#utility.yul\":7935:7941   */\n      dup5\n        /* \"#utility.yul\":7891:7963   */\n      tag_92\n      jump\t// in\n    tag_173:\n        /* \"#utility.yul\":7638:7970   */\n      swap4\n      swap3\n      pop\n      pop\n      pop\n      jump\t// out\n        /* \"#utility.yul\":7976:8156   */\n    tag_101:\n        /* \"#utility.yul\":8024:8101   */\n      0x4e487b7100000000000000000000000000000000000000000000000000000000\n        /* \"#utility.yul\":8021:8022   */\n      0x00\n        /* \"#utility.yul\":8014:8102   */\n      mstore\n        /* \"#utility.yul\":8121:8125   */\n      0x22\n        /* \"#utility.yul\":8118:8119   */\n      0x04\n        /* \"#utility.yul\":8111:8126   */\n      mstore\n        /* \"#utility.yul\":8145:8149   */\n      0x24\n        /* \"#utility.yul\":8142:8143   */\n      0x00\n        /* \"#utility.yul\":8135:8150   */\n      revert\n        /* \"#utility.yul\":8162:8482   */\n    tag_62:\n        /* \"#utility.yul\":8206:8212   */\n      0x00\n        /* \"#utility.yul\":8243:8244   */\n      0x02\n        /* \"#utility.yul\":8237:8241   */\n      dup3\n        /* \"#utility.yul\":8233:8245   */\n      div\n        /* \"#utility.yul\":8223:8245   */\n      swap1\n      pop\n        /* \"#utility.yul\":8290:8291   */\n      0x01\n        /* \"#utility.yul\":8284:8288   */\n      dup3\n        /* \"#utility.yul\":8280:8292   */\n      and\n        /* \"#utility.yul\":8311:8329   */\n      dup1\n        /* \"#utility.yul\":8301:8382   */\n      tag_176\n      jumpi\n        /* \"#utility.yul\":8367:8371   */\n      0x7f\n        /* \"#utility.yul\":8359:8365   */\n      dup3\n        /* \"#utility.yul\":8355:8372   */\n      and\n        /* \"#utility.yul\":8345:8372   */\n      swap2\n      pop\n        /* \"#utility.yul\":8301:8382   */\n    tag_176:\n        /* \"#utility.yul\":8429:8431   */\n      0x20\n        /* \"#utility.yul\":8421:8427   */\n      dup3\n        /* \"#utility.yul\":8418:8432   */\n      lt\n        /* \"#utility.yul\":8398:8416   */\n      dup2\n        /* \"#utility.yul\":8395:8433   */\n      sub\n        /* \"#utility.yul\":8392:8476   */\n      tag_177\n      jumpi\n        /* \"#utility.yul\":8448:8466   */\n      tag_178\n      tag_101\n      jump\t// in\n    tag_178:\n        /* \"#utility.yul\":8392:8476   */\n    tag_177:\n        /* \"#utility.yul\":8213:8482   */\n      pop\n        /* \"#utility.yul\":8162:8482   */\n      swap2\n      swap1\n      pop\n      jump\t// out\n        /* \"#utility.yul\":8488:8708   */\n    tag_102:\n        /* \"#utility.yul\":8628:8662   */\n      0x5365756c206c652070726f707269657461697265207065757420726574697265\n        /* \"#utility.yul\":8624:8625   */\n      0x00\n        /* \"#utility.yul\":8616:8622   */\n      dup3\n        /* \"#utility.yul\":8612:8626   */\n      add\n        /* \"#utility.yul\":8605:8663   */\n      mstore\n        /* \"#utility.yul\":8697:8700   */\n      0x7200000000000000000000000000000000000000000000000000000000000000\n        /* \"#utility.yul\":8692:8694   */\n      0x20\n        /* \"#utility.yul\":8684:8690   */\n      dup3\n        /* \"#utility.yul\":8680:8695   */\n      add\n        /* \"#utility.yul\":8673:8701   */\n      mstore\n        /* \"#utility.yul\":8488:8708   */\n      pop\n      jump\t// out\n        /* \"#utility.yul\":8714:9080   */\n    tag_103:\n        /* \"#utility.yul\":8856:8859   */\n      0x00\n        /* \"#utility.yul\":8877:8944   */\n      tag_181\n        /* \"#utility.yul\":8941:8943   */\n      0x21\n        /* \"#utility.yul\":8936:8939   */\n      dup4\n        /* \"#utility.yul\":8877:8944   */\n      tag_84\n      jump\t// in\n    tag_181:\n        /* \"#utility.yul\":8870:8944   */\n      swap2\n      pop\n        /* \"#utility.yul\":8953:9046   */\n      tag_182\n        /* \"#utility.yul\":9042:9045   */\n      dup3\n        /* \"#utility.yul\":8953:9046   */\n      tag_102\n      jump\t// in\n    tag_182:\n        /* \"#utility.yul\":9071:9073   */\n      0x40\n        /* \"#utility.yul\":9066:9069   */\n      dup3\n        /* \"#utility.yul\":9062:9074   */\n      add\n        /* \"#utility.yul\":9055:9074   */\n      swap1\n      pop\n        /* \"#utility.yul\":8714:9080   */\n      swap2\n      swap1\n      pop\n      jump\t// out\n        /* \"#utility.yul\":9086:9505   */\n    tag_70:\n        /* \"#utility.yul\":9252:9256   */\n      0x00\n        /* \"#utility.yul\":9290:9292   */\n      0x20\n        /* \"#utility.yul\":9279:9288   */\n      dup3\n        /* \"#utility.yul\":9275:9293   */\n      add\n        /* \"#utility.yul\":9267:9293   */\n      swap1\n      pop\n        /* \"#utility.yul\":9339:9348   */\n      dup2\n        /* \"#utility.yul\":9333:9337   */\n      dup2\n        /* \"#utility.yul\":9329:9349   */\n      sub\n        /* \"#utility.yul\":9325:9326   */\n      0x00\n        /* \"#utility.yul\":9314:9323   */\n      dup4\n        /* \"#utility.yul\":9310:9327   */\n      add\n        /* \"#utility.yul\":9303:9350   */\n      mstore\n        /* \"#utility.yul\":9367:9498   */\n      tag_184\n        /* \"#utility.yul\":9493:9497   */\n      dup2\n        /* \"#utility.yul\":9367:9498   */\n      tag_103\n      jump\t// in\n    tag_184:\n        /* \"#utility.yul\":9359:9498   */\n      swap1\n      pop\n        /* \"#utility.yul\":9086:9505   */\n      swap2\n      swap1\n      pop\n      jump\t// out\n        /* \"#utility.yul\":9511:9693   */\n    tag_104:\n        /* \"#utility.yul\":9651:9685   */\n      0x4c65206c6f796572206e27612070617320656e636f7265206574652070617965\n        /* \"#utility.yul\":9647:9648   */\n      0x00\n        /* \"#utility.yul\":9639:9645   */\n      dup3\n        /* \"#utility.yul\":9635:9649   */\n      add\n        /* \"#utility.yul\":9628:9686   */\n      mstore\n        /* \"#utility.yul\":9511:9693   */\n      pop\n      jump\t// out\n        /* \"#utility.yul\":9699:10065   */\n    tag_105:\n        /* \"#utility.yul\":9841:9844   */\n      0x00\n        /* \"#utility.yul\":9862:9929   */\n      tag_187\n        /* \"#utility.yul\":9926:9928   */\n      0x20\n        /* \"#utility.yul\":9921:9924   */\n      dup4\n        /* \"#utility.yul\":9862:9929   */\n      tag_84\n      jump\t// in\n    tag_187:\n        /* \"#utility.yul\":9855:9929   */\n      swap2\n      pop\n        /* \"#utility.yul\":9938:10031   */\n      tag_188\n        /* \"#utility.yul\":10027:10030   */\n      dup3\n        /* \"#utility.yul\":9938:10031   */\n      tag_104\n      jump\t// in\n    tag_188:\n        /* \"#utility.yul\":10056:10058   */\n      0x20\n        /* \"#utility.yul\":10051:10054   */\n      dup3\n        /* \"#utility.yul\":10047:10059   */\n      add\n        /* \"#utility.yul\":10040:10059   */\n      swap1\n      pop\n        /* \"#utility.yul\":9699:10065   */\n      swap2\n      swap1\n      pop\n      jump\t// out\n        /* \"#utility.yul\":10071:10490   */\n    tag_73:\n        /* \"#utility.yul\":10237:10241   */\n      0x00\n        /* \"#utility.yul\":10275:10277   */\n      0x20\n        /* \"#utility.yul\":10264:10273   */\n      dup3\n        /* \"#utility.yul\":10260:10278   */\n      add\n        /* \"#utility.yul\":10252:10278   */\n      swap1\n      pop\n        /* \"#utility.yul\":10324:10333   */\n      dup2\n        /* \"#utility.yul\":10318:10322   */\n      dup2\n        /* \"#utility.yul\":10314:10334   */\n      sub\n        /* \"#utility.yul\":10310:10311   */\n      0x00\n        /* \"#utility.yul\":10299:10308   */\n      dup4\n        /* \"#utility.yul\":10295:10312   */\n      add\n        /* \"#utility.yul\":10288:10335   */\n      mstore\n        /* \"#utility.yul\":10352:10483   */\n      tag_190\n        /* \"#utility.yul\":10478:10482   */\n      dup2\n        /* \"#utility.yul\":10352:10483   */\n      tag_105\n      jump\t// in\n    tag_190:\n        /* \"#utility.yul\":10344:10483   */\n      swap1\n      pop\n        /* \"#utility.yul\":10071:10490   */\n      swap2\n      swap1\n      pop\n      jump\t// out\n\n    auxdata: 0xa264697066735822122020d843a5a3cbf3cd68e6c32c82da45de28471ee81d2867ce4d4173f668b44f0664736f6c63430008220033\n}\n",
				"bytecode": {
					"linkReferences": {},
					"object": "60806040526040518060400160405280601f81526020017f436f6e74726174206465204261696c206176656320426c6f636b636861696e008152505f90816100479190610329565b50348015610053575f5ffd5b50604051610fdb380380610fdb83398181016040528101906100759190610426565b3360015f6101000a81548173ffffffffffffffffffffffffffffffffffffffff021916908373ffffffffffffffffffffffffffffffffffffffff160217905550806003819055505f60045f6101000a81548160ff02191690831515021790555050610451565b5f81519050919050565b7f4e487b71000000000000000000000000000000000000000000000000000000005f52604160045260245ffd5b7f4e487b71000000000000000000000000000000000000000000000000000000005f52602260045260245ffd5b5f600282049050600182168061015657607f821691505b60208210810361016957610168610112565b5b50919050565b5f819050815f5260205f209050919050565b5f6020601f8301049050919050565b5f82821b905092915050565b5f600883026101cb7fffffffffffffffffffffffffffffffffffffffffffffffffffffffffffffffff82610190565b6101d58683610190565b95508019841693508086168417925050509392505050565b5f819050919050565b5f819050919050565b5f61021961021461020f846101ed565b6101f6565b6101ed565b9050919050565b5f819050919050565b610232836101ff565b61024661023e82610220565b84845461019c565b825550505050565b5f5f905090565b61025d61024e565b610268818484610229565b505050565b5f5b8281101561028e576102835f828401610255565b60018101905061026f565b505050565b601f8211156102e157828211156102e0576102ad8161016f565b6102b683610181565b6102bf85610181565b60208610156102cc575f90505b8083016102db8284038261026d565b505050505b5b505050565b5f82821c905092915050565b5f6103015f19846008026102e6565b1980831691505092915050565b5f61031983836102f2565b9150826002028217905092915050565b610332826100db565b67ffffffffffffffff81111561034b5761034a6100e5565b5b610355825461013f565b610360828285610293565b5f60209050601f831160018114610391575f841561037f578287015190505b610389858261030e565b8655506103f0565b601f19841661039f8661016f565b5f5b828110156103c6578489015182556001820191506020850194506020810190506103a1565b868310156103e357848901516103df601f8916826102f2565b8355505b6001600288020188555050505b505050505050565b5f5ffd5b610405816101ed565b811461040f575f5ffd5b50565b5f81519050610420816103fc565b92915050565b5f6020828403121561043b5761043a6103f8565b5b5f61044884828501610412565b91505092915050565b610b7d8061045e5f395ff3fe60806040526004361061007a575f3560e01c80638f1546971161004d5780638f15469714610104578063b06e7d621461011a578063b3a4aebf14610144578063b947172f1461016e5761007a565b80630b01e57c1461007e57806324be4cc1146100a65780636c9e012e146100b057806379583ee5146100da575b5f5ffd5b348015610089575f5ffd5b506100a4600480360381019061009f919061069a565b610198565b005b6100ae61026a565b005b3480156100bb575f5ffd5b506100c46103e6565b6040516100d19190610735565b60405180910390f35b3480156100e5575f5ffd5b506100ee610471565b6040516100fb9190610764565b60405180910390f35b34801561010f575f5ffd5b50610118610496565b005b348015610125575f5ffd5b5061012e6105ff565b60405161013b9190610764565b60405180910390f35b34801561014f575f5ffd5b50610158610624565b6040516101659190610797565b60405180910390f35b348015610179575f5ffd5b50610182610636565b60405161018f91906107c8565b60405180910390f35b60015f9054906101000a900473ffffffffffffffffffffffffffffffffffffffff1673ffffffffffffffffffffffffffffffffffffffff163373ffffffffffffffffffffffffffffffffffffffff1614610227576040517f08c379a000000000000000000000000000000000000000000000000000000000815260040161021e90610851565b60405180910390fd5b8060025f6101000a81548173ffffffffffffffffffffffffffffffffffffffff021916908373ffffffffffffffffffffffffffffffffffffffff16021790555050565b60025f9054906101000a900473ffffffffffffffffffffffffffffffffffffffff1673ffffffffffffffffffffffffffffffffffffffff163373ffffffffffffffffffffffffffffffffffffffff16146102f9576040517f08c379a00000000000000000000000000000000000000000000000000000000081526004016102f0906108b9565b60405180910390fd5b600354341461033d576040517f08c379a000000000000000000000000000000000000000000000000000000000815260040161033490610947565b60405180910390fd5b5f151560045f9054906101000a900460ff16151514610391576040517f08c379a0000000000000000000000000000000000000000000000000000000008152600401610388906109af565b60405180910390fd5b600160045f6101000a81548160ff0219169083151502179055507f1169ad9445c717b3b005cb9744e884d1faf4779529112821fcac84ada358593c33346040516103dc9291906109cd565b60405180910390a1565b5f80546103f290610a21565b80601f016020809104026020016040519081016040528092919081815260200182805461041e90610a21565b80156104695780601f1061044057610100808354040283529160200191610469565b820191905f5260205f20905b81548152906001019060200180831161044c57829003601f168201915b505050505081565b60015f9054906101000a900473ffffffffffffffffffffffffffffffffffffffff1681565b60015f9054906101000a900473ffffffffffffffffffffffffffffffffffffffff1673ffffffffffffffffffffffffffffffffffffffff163373ffffffffffffffffffffffffffffffffffffffff1614610525576040517f08c379a000000000000000000000000000000000000000000000000000000000815260040161051c90610ac1565b60405180910390fd5b6001151560045f9054906101000a900460ff1615151461057a576040517f08c379a000000000000000000000000000000000000000000000000000000000815260040161057190610b29565b60405180910390fd5b5f4790505f60045f6101000a81548160ff02191690831515021790555060015f9054906101000a900473ffffffffffffffffffffffffffffffffffffffff1673ffffffffffffffffffffffffffffffffffffffff166108fc8290811502906040515f60405180830381858888f193505050501580156105fb573d5f5f3e3d5ffd5b5050565b60025f9054906101000a900473ffffffffffffffffffffffffffffffffffffffff1681565b60045f9054906101000a900460ff1681565b60035481565b5f5ffd5b5f73ffffffffffffffffffffffffffffffffffffffff82169050919050565b5f61066982610640565b9050919050565b6106798161065f565b8114610683575f5ffd5b50565b5f8135905061069481610670565b92915050565b5f602082840312156106af576106ae61063c565b5b5f6106bc84828501610686565b91505092915050565b5f81519050919050565b5f82825260208201905092915050565b8281835e5f83830152505050565b5f601f19601f8301169050919050565b5f610707826106c5565b61071181856106cf565b93506107218185602086016106df565b61072a816106ed565b840191505092915050565b5f6020820190508181035f83015261074d81846106fd565b905092915050565b61075e8161065f565b82525050565b5f6020820190506107775f830184610755565b92915050565b5f8115159050919050565b6107918161077d565b82525050565b5f6020820190506107aa5f830184610788565b92915050565b5f819050919050565b6107c2816107b0565b82525050565b5f6020820190506107db5f8301846107b9565b92915050565b7f5365756c206c652070726f70726965746169726520706575742064657369676e5f8201527f6572206c65206c6f636174616972650000000000000000000000000000000000602082015250565b5f61083b602f836106cf565b9150610846826107e1565b604082019050919050565b5f6020820190508181035f8301526108688161082f565b9050919050565b7f5365756c206c65206c6f636174616972652070657574207061796572000000005f82015250565b5f6108a3601c836106cf565b91506108ae8261086f565b602082019050919050565b5f6020820190508181035f8301526108d081610897565b9050919050565b7f4c65206d6f6e74616e7420646f697420636f72726573706f6e647265206175205f8201527f6c6f796572000000000000000000000000000000000000000000000000000000602082015250565b5f6109316025836106cf565b915061093c826108d7565b604082019050919050565b5f6020820190508181035f83015261095e81610925565b9050919050565b7f4c6f7965722064656a61207061796500000000000000000000000000000000005f82015250565b5f610999600f836106cf565b91506109a482610965565b602082019050919050565b5f6020820190508181035f8301526109c68161098d565b9050919050565b5f6040820190506109e05f830185610755565b6109ed60208301846107b9565b9392505050565b7f4e487b71000000000000000000000000000000000000000000000000000000005f52602260045260245ffd5b5f6002820490506001821680610a3857607f821691505b602082108103610a4b57610a4a6109f4565b5b50919050565b7f5365756c206c652070726f7072696574616972652070657574207265746972655f8201527f7200000000000000000000000000000000000000000000000000000000000000602082015250565b5f610aab6021836106cf565b9150610ab682610a51565b604082019050919050565b5f6020820190508181035f830152610ad881610a9f565b9050919050565b7f4c65206c6f796572206e27612070617320656e636f72652065746520706179655f82015250565b5f610b136020836106cf565b9150610b1e82610adf565b602082019050919050565b5f6020820190508181035f830152610b4081610b07565b905091905056fea264697066735822122020d843a5a3cbf3cd68e6c32c82da45de28471ee81d2867ce4d4173f668b44f0664736f6c63430008220033",
					"opcodes": "PUSH1 0x80 PUSH1 0x40 MSTORE PUSH1 0x40 MLOAD DUP1 PUSH1 0x40 ADD PUSH1 0x40 MSTORE DUP1 PUSH1 0x1F DUP2 MSTORE PUSH1 0x20 ADD PUSH32 0x436F6E74726174206465204261696C206176656320426C6F636B636861696E00 DUP2 MSTORE POP PUSH0 SWAP1 DUP2 PUSH2 0x47 SWAP2 SWAP1 PUSH2 0x329 JUMP JUMPDEST POP CALLVALUE DUP1 ISZERO PUSH2 0x53 JUMPI PUSH0 PUSH0 REVERT JUMPDEST POP PUSH1 0x40 MLOAD PUSH2 0xFDB CODESIZE SUB DUP1 PUSH2 0xFDB DUP4 CODECOPY DUP2 DUP2 ADD PUSH1 0x40 MSTORE DUP2 ADD SWAP1 PUSH2 0x75 SWAP2 SWAP1 PUSH2 0x426 JUMP JUMPDEST CALLER PUSH1 0x1 PUSH0 PUSH2 0x100 EXP DUP2 SLOAD DUP2 PUSH20 0xFFFFFFFFFFFFFFFFFFFFFFFFFFFFFFFFFFFFFFFF MUL NOT AND SWAP1 DUP4 PUSH20 0xFFFFFFFFFFFFFFFFFFFFFFFFFFFFFFFFFFFFFFFF AND MUL OR SWAP1 SSTORE POP DUP1 PUSH1 0x3 DUP2 SWAP1 SSTORE POP PUSH0 PUSH1 0x4 PUSH0 PUSH2 0x100 EXP DUP2 SLOAD DUP2 PUSH1 0xFF MUL NOT AND SWAP1 DUP4 ISZERO ISZERO MUL OR SWAP1 SSTORE POP POP PUSH2 0x451 JUMP JUMPDEST PUSH0 DUP2 MLOAD SWAP1 POP SWAP2 SWAP1 POP JUMP JUMPDEST PUSH32 0x4E487B7100000000000000000000000000000000000000000000000000000000 PUSH0 MSTORE PUSH1 0x41 PUSH1 0x4 MSTORE PUSH1 0x24 PUSH0 REVERT JUMPDEST PUSH32 0x4E487B7100000000000000000000000000000000000000000000000000000000 PUSH0 MSTORE PUSH1 0x22 PUSH1 0x4 MSTORE PUSH1 0x24 PUSH0 REVERT JUMPDEST PUSH0 PUSH1 0x2 DUP3 DIV SWAP1 POP PUSH1 0x1 DUP3 AND DUP1 PUSH2 0x156 JUMPI PUSH1 0x7F DUP3 AND SWAP2 POP JUMPDEST PUSH1 0x20 DUP3 LT DUP2 SUB PUSH2 0x169 JUMPI PUSH2 0x168 PUSH2 0x112 JUMP JUMPDEST JUMPDEST POP SWAP2 SWAP1 POP JUMP JUMPDEST PUSH0 DUP2 SWAP1 POP DUP2 PUSH0 MSTORE PUSH1 0x20 PUSH0 KECCAK256 SWAP1 POP SWAP2 SWAP1 POP JUMP JUMPDEST PUSH0 PUSH1 0x20 PUSH1 0x1F DUP4 ADD DIV SWAP1 POP SWAP2 SWAP1 POP JUMP JUMPDEST PUSH0 DUP3 DUP3 SHL SWAP1 POP SWAP3 SWAP2 POP POP JUMP JUMPDEST PUSH0 PUSH1 0x8 DUP4 MUL PUSH2 0x1CB PUSH32 0xFFFFFFFFFFFFFFFFFFFFFFFFFFFFFFFFFFFFFFFFFFFFFFFFFFFFFFFFFFFFFFFF DUP3 PUSH2 0x190 JUMP JUMPDEST PUSH2 0x1D5 DUP7 DUP4 PUSH2 0x190 JUMP JUMPDEST SWAP6 POP DUP1 NOT DUP5 AND SWAP4 POP DUP1 DUP7 AND DUP5 OR SWAP3 POP POP POP SWAP4 SWAP3 POP POP POP JUMP JUMPDEST PUSH0 DUP2 SWAP1 POP SWAP2 SWAP1 POP JUMP JUMPDEST PUSH0 DUP2 SWAP1 POP SWAP2 SWAP1 POP JUMP JUMPDEST PUSH0 PUSH2 0x219 PUSH2 0x214 PUSH2 0x20F DUP5 PUSH2 0x1ED JUMP JUMPDEST PUSH2 0x1F6 JUMP JUMPDEST PUSH2 0x1ED JUMP JUMPDEST SWAP1 POP SWAP2 SWAP1 POP JUMP JUMPDEST PUSH0 DUP2 SWAP1 POP SWAP2 SWAP1 POP JUMP JUMPDEST PUSH2 0x232 DUP4 PUSH2 0x1FF JUMP JUMPDEST PUSH2 0x246 PUSH2 0x23E DUP3 PUSH2 0x220 JUMP JUMPDEST DUP5 DUP5 SLOAD PUSH2 0x19C JUMP JUMPDEST DUP3 SSTORE POP POP POP POP JUMP JUMPDEST PUSH0 PUSH0 SWAP1 POP SWAP1 JUMP JUMPDEST PUSH2 0x25D PUSH2 0x24E JUMP JUMPDEST PUSH2 0x268 DUP2 DUP5 DUP5 PUSH2 0x229 JUMP JUMPDEST POP POP POP JUMP JUMPDEST PUSH0 JUMPDEST DUP3 DUP2 LT ISZERO PUSH2 0x28E JUMPI PUSH2 0x283 PUSH0 DUP3 DUP5 ADD PUSH2 0x255 JUMP JUMPDEST PUSH1 0x1 DUP2 ADD SWAP1 POP PUSH2 0x26F JUMP JUMPDEST POP POP POP JUMP JUMPDEST PUSH1 0x1F DUP3 GT ISZERO PUSH2 0x2E1 JUMPI DUP3 DUP3 GT ISZERO PUSH2 0x2E0 JUMPI PUSH2 0x2AD DUP2 PUSH2 0x16F JUMP JUMPDEST PUSH2 0x2B6 DUP4 PUSH2 0x181 JUMP JUMPDEST PUSH2 0x2BF DUP6 PUSH2 0x181 JUMP JUMPDEST PUSH1 0x20 DUP7 LT ISZERO PUSH2 0x2CC JUMPI PUSH0 SWAP1 POP JUMPDEST DUP1 DUP4 ADD PUSH2 0x2DB DUP3 DUP5 SUB DUP3 PUSH2 0x26D JUMP JUMPDEST POP POP POP POP JUMPDEST JUMPDEST POP POP POP JUMP JUMPDEST PUSH0 DUP3 DUP3 SHR SWAP1 POP SWAP3 SWAP2 POP POP JUMP JUMPDEST PUSH0 PUSH2 0x301 PUSH0 NOT DUP5 PUSH1 0x8 MUL PUSH2 0x2E6 JUMP JUMPDEST NOT DUP1 DUP4 AND SWAP2 POP POP SWAP3 SWAP2 POP POP JUMP JUMPDEST PUSH0 PUSH2 0x319 DUP4 DUP4 PUSH2 0x2F2 JUMP JUMPDEST SWAP2 POP DUP3 PUSH1 0x2 MUL DUP3 OR SWAP1 POP SWAP3 SWAP2 POP POP JUMP JUMPDEST PUSH2 0x332 DUP3 PUSH2 0xDB JUMP JUMPDEST PUSH8 0xFFFFFFFFFFFFFFFF DUP2 GT ISZERO PUSH2 0x34B JUMPI PUSH2 0x34A PUSH2 0xE5 JUMP JUMPDEST JUMPDEST PUSH2 0x355 DUP3 SLOAD PUSH2 0x13F JUMP JUMPDEST PUSH2 0x360 DUP3 DUP3 DUP6 PUSH2 0x293 JUMP JUMPDEST PUSH0 PUSH1 0x20 SWAP1 POP PUSH1 0x1F DUP4 GT PUSH1 0x1 DUP2 EQ PUSH2 0x391 JUMPI PUSH0 DUP5 ISZERO PUSH2 0x37F JUMPI DUP3 DUP8 ADD MLOAD SWAP1 POP JUMPDEST PUSH2 0x389 DUP6 DUP3 PUSH2 0x30E JUMP JUMPDEST DUP7 SSTORE POP PUSH2 0x3F0 JUMP JUMPDEST PUSH1 0x1F NOT DUP5 AND PUSH2 0x39F DUP7 PUSH2 0x16F JUMP JUMPDEST PUSH0 JUMPDEST DUP3 DUP2 LT ISZERO PUSH2 0x3C6 JUMPI DUP5 DUP10 ADD MLOAD DUP3 SSTORE PUSH1 0x1 DUP3 ADD SWAP2 POP PUSH1 0x20 DUP6 ADD SWAP5 POP PUSH1 0x20 DUP2 ADD SWAP1 POP PUSH2 0x3A1 JUMP JUMPDEST DUP7 DUP4 LT ISZERO PUSH2 0x3E3 JUMPI DUP5 DUP10 ADD MLOAD PUSH2 0x3DF PUSH1 0x1F DUP10 AND DUP3 PUSH2 0x2F2 JUMP JUMPDEST DUP4 SSTORE POP JUMPDEST PUSH1 0x1 PUSH1 0x2 DUP9 MUL ADD DUP9 SSTORE POP POP POP JUMPDEST POP POP POP POP POP POP JUMP JUMPDEST PUSH0 PUSH0 REVERT JUMPDEST PUSH2 0x405 DUP2 PUSH2 0x1ED JUMP JUMPDEST DUP2 EQ PUSH2 0x40F JUMPI PUSH0 PUSH0 REVERT JUMPDEST POP JUMP JUMPDEST PUSH0 DUP2 MLOAD SWAP1 POP PUSH2 0x420 DUP2 PUSH2 0x3FC JUMP JUMPDEST SWAP3 SWAP2 POP POP JUMP JUMPDEST PUSH0 PUSH1 0x20 DUP3 DUP5 SUB SLT ISZERO PUSH2 0x43B JUMPI PUSH2 0x43A PUSH2 0x3F8 JUMP JUMPDEST JUMPDEST PUSH0 PUSH2 0x448 DUP5 DUP3 DUP6 ADD PUSH2 0x412 JUMP JUMPDEST SWAP2 POP POP SWAP3 SWAP2 POP POP JUMP JUMPDEST PUSH2 0xB7D DUP1 PUSH2 0x45E PUSH0 CODECOPY PUSH0 RETURN INVALID PUSH1 0x80 PUSH1 0x40 MSTORE PUSH1 0x4 CALLDATASIZE LT PUSH2 0x7A JUMPI PUSH0 CALLDATALOAD PUSH1 0xE0 SHR DUP1 PUSH4 0x8F154697 GT PUSH2 0x4D JUMPI DUP1 PUSH4 0x8F154697 EQ PUSH2 0x104 JUMPI DUP1 PUSH4 0xB06E7D62 EQ PUSH2 0x11A JUMPI DUP1 PUSH4 0xB3A4AEBF EQ PUSH2 0x144 JUMPI DUP1 PUSH4 0xB947172F EQ PUSH2 0x16E JUMPI PUSH2 0x7A JUMP JUMPDEST DUP1 PUSH4 0xB01E57C EQ PUSH2 0x7E JUMPI DUP1 PUSH4 0x24BE4CC1 EQ PUSH2 0xA6 JUMPI DUP1 PUSH4 0x6C9E012E EQ PUSH2 0xB0 JUMPI DUP1 PUSH4 0x79583EE5 EQ PUSH2 0xDA JUMPI JUMPDEST PUSH0 PUSH0 REVERT JUMPDEST CALLVALUE DUP1 ISZERO PUSH2 0x89 JUMPI PUSH0 PUSH0 REVERT JUMPDEST POP PUSH2 0xA4 PUSH1 0x4 DUP1 CALLDATASIZE SUB DUP2 ADD SWAP1 PUSH2 0x9F SWAP2 SWAP1 PUSH2 0x69A JUMP JUMPDEST PUSH2 0x198 JUMP JUMPDEST STOP JUMPDEST PUSH2 0xAE PUSH2 0x26A JUMP JUMPDEST STOP JUMPDEST CALLVALUE DUP1 ISZERO PUSH2 0xBB JUMPI PUSH0 PUSH0 REVERT JUMPDEST POP PUSH2 0xC4 PUSH2 0x3E6 JUMP JUMPDEST PUSH1 0x40 MLOAD PUSH2 0xD1 SWAP2 SWAP1 PUSH2 0x735 JUMP JUMPDEST PUSH1 0x40 MLOAD DUP1 SWAP2 SUB SWAP1 RETURN JUMPDEST CALLVALUE DUP1 ISZERO PUSH2 0xE5 JUMPI PUSH0 PUSH0 REVERT JUMPDEST POP PUSH2 0xEE PUSH2 0x471 JUMP JUMPDEST PUSH1 0x40 MLOAD PUSH2 0xFB SWAP2 SWAP1 PUSH2 0x764 JUMP JUMPDEST PUSH1 0x40 MLOAD DUP1 SWAP2 SUB SWAP1 RETURN JUMPDEST CALLVALUE DUP1 ISZERO PUSH2 0x10F JUMPI PUSH0 PUSH0 REVERT JUMPDEST POP PUSH2 0x118 PUSH2 0x496 JUMP JUMPDEST STOP JUMPDEST CALLVALUE DUP1 ISZERO PUSH2 0x125 JUMPI PUSH0 PUSH0 REVERT JUMPDEST POP PUSH2 0x12E PUSH2 0x5FF JUMP JUMPDEST PUSH1 0x40 MLOAD PUSH2 0x13B SWAP2 SWAP1 PUSH2 0x764 JUMP JUMPDEST PUSH1 0x40 MLOAD DUP1 SWAP2 SUB SWAP1 RETURN JUMPDEST CALLVALUE DUP1 ISZERO PUSH2 0x14F JUMPI PUSH0 PUSH0 REVERT JUMPDEST POP PUSH2 0x158 PUSH2 0x624 JUMP JUMPDEST PUSH1 0x40 MLOAD PUSH2 0x165 SWAP2 SWAP1 PUSH2 0x797 JUMP JUMPDEST PUSH1 0x40 MLOAD DUP1 SWAP2 SUB SWAP1 RETURN JUMPDEST CALLVALUE DUP1 ISZERO PUSH2 0x179 JUMPI PUSH0 PUSH0 REVERT JUMPDEST POP PUSH2 0x182 PUSH2 0x636 JUMP JUMPDEST PUSH1 0x40 MLOAD PUSH2 0x18F SWAP2 SWAP1 PUSH2 0x7C8 JUMP JUMPDEST PUSH1 0x40 MLOAD DUP1 SWAP2 SUB SWAP1 RETURN JUMPDEST PUSH1 0x1 PUSH0 SWAP1 SLOAD SWAP1 PUSH2 0x100 EXP SWAP1 DIV PUSH20 0xFFFFFFFFFFFFFFFFFFFFFFFFFFFFFFFFFFFFFFFF AND PUSH20 0xFFFFFFFFFFFFFFFFFFFFFFFFFFFFFFFFFFFFFFFF AND CALLER PUSH20 0xFFFFFFFFFFFFFFFFFFFFFFFFFFFFFFFFFFFFFFFF AND EQ PUSH2 0x227 JUMPI PUSH1 0x40 MLOAD PUSH32 0x8C379A000000000000000000000000000000000000000000000000000000000 DUP2 MSTORE PUSH1 0x4 ADD PUSH2 0x21E SWAP1 PUSH2 0x851 JUMP JUMPDEST PUSH1 0x40 MLOAD DUP1 SWAP2 SUB SWAP1 REVERT JUMPDEST DUP1 PUSH1 0x2 PUSH0 PUSH2 0x100 EXP DUP2 SLOAD DUP2 PUSH20 0xFFFFFFFFFFFFFFFFFFFFFFFFFFFFFFFFFFFFFFFF MUL NOT AND SWAP1 DUP4 PUSH20 0xFFFFFFFFFFFFFFFFFFFFFFFFFFFFFFFFFFFFFFFF AND MUL OR SWAP1 SSTORE POP POP JUMP JUMPDEST PUSH1 0x2 PUSH0 SWAP1 SLOAD SWAP1 PUSH2 0x100 EXP SWAP1 DIV PUSH20 0xFFFFFFFFFFFFFFFFFFFFFFFFFFFFFFFFFFFFFFFF AND PUSH20 0xFFFFFFFFFFFFFFFFFFFFFFFFFFFFFFFFFFFFFFFF AND CALLER PUSH20 0xFFFFFFFFFFFFFFFFFFFFFFFFFFFFFFFFFFFFFFFF AND EQ PUSH2 0x2F9 JUMPI PUSH1 0x40 MLOAD PUSH32 0x8C379A000000000000000000000000000000000000000000000000000000000 DUP2 MSTORE PUSH1 0x4 ADD PUSH2 0x2F0 SWAP1 PUSH2 0x8B9 JUMP JUMPDEST PUSH1 0x40 MLOAD DUP1 SWAP2 SUB SWAP1 REVERT JUMPDEST PUSH1 0x3 SLOAD CALLVALUE EQ PUSH2 0x33D JUMPI PUSH1 0x40 MLOAD PUSH32 0x8C379A000000000000000000000000000000000000000000000000000000000 DUP2 MSTORE PUSH1 0x4 ADD PUSH2 0x334 SWAP1 PUSH2 0x947 JUMP JUMPDEST PUSH1 0x40 MLOAD DUP1 SWAP2 SUB SWAP1 REVERT JUMPDEST PUSH0 ISZERO ISZERO PUSH1 0x4 PUSH0 SWAP1 SLOAD SWAP1 PUSH2 0x100 EXP SWAP1 DIV PUSH1 0xFF AND ISZERO ISZERO EQ PUSH2 0x391 JUMPI PUSH1 0x40 MLOAD PUSH32 0x8C379A000000000000000000000000000000000000000000000000000000000 DUP2 MSTORE PUSH1 0x4 ADD PUSH2 0x388 SWAP1 PUSH2 0x9AF JUMP JUMPDEST PUSH1 0x40 MLOAD DUP1 SWAP2 SUB SWAP1 REVERT JUMPDEST PUSH1 0x1 PUSH1 0x4 PUSH0 PUSH2 0x100 EXP DUP2 SLOAD DUP2 PUSH1 0xFF MUL NOT AND SWAP1 DUP4 ISZERO ISZERO MUL OR SWAP1 SSTORE POP PUSH32 0x1169AD9445C717B3B005CB9744E884D1FAF4779529112821FCAC84ADA358593C CALLER CALLVALUE PUSH1 0x40 MLOAD PUSH2 0x3DC SWAP3 SWAP2 SWAP1 PUSH2 0x9CD JUMP JUMPDEST PUSH1 0x40 MLOAD DUP1 SWAP2 SUB SWAP1 LOG1 JUMP JUMPDEST PUSH0 DUP1 SLOAD PUSH2 0x3F2 SWAP1 PUSH2 0xA21 JUMP JUMPDEST DUP1 PUSH1 0x1F ADD PUSH1 0x20 DUP1 SWAP2 DIV MUL PUSH1 0x20 ADD PUSH1 0x40 MLOAD SWAP1 DUP2 ADD PUSH1 0x40 MSTORE DUP1 SWAP3 SWAP2 SWAP1 DUP2 DUP2 MSTORE PUSH1 0x20 ADD DUP3 DUP1 SLOAD PUSH2 0x41E SWAP1 PUSH2 0xA21 JUMP JUMPDEST DUP1 ISZERO PUSH2 0x469 JUMPI DUP1 PUSH1 0x1F LT PUSH2 0x440 JUMPI PUSH2 0x100 DUP1 DUP4 SLOAD DIV MUL DUP4 MSTORE SWAP2 PUSH1 0x20 ADD SWAP2 PUSH2 0x469 JUMP JUMPDEST DUP3 ADD SWAP2 SWAP1 PUSH0 MSTORE PUSH1 0x20 PUSH0 KECCAK256 SWAP1 JUMPDEST DUP2 SLOAD DUP2 MSTORE SWAP1 PUSH1 0x1 ADD SWAP1 PUSH1 0x20 ADD DUP1 DUP4 GT PUSH2 0x44C JUMPI DUP3 SWAP1 SUB PUSH1 0x1F AND DUP3 ADD SWAP2 JUMPDEST POP POP POP POP POP DUP2 JUMP JUMPDEST PUSH1 0x1 PUSH0 SWAP1 SLOAD SWAP1 PUSH2 0x100 EXP SWAP1 DIV PUSH20 0xFFFFFFFFFFFFFFFFFFFFFFFFFFFFFFFFFFFFFFFF AND DUP2 JUMP JUMPDEST PUSH1 0x1 PUSH0 SWAP1 SLOAD SWAP1 PUSH2 0x100 EXP SWAP1 DIV PUSH20 0xFFFFFFFFFFFFFFFFFFFFFFFFFFFFFFFFFFFFFFFF AND PUSH20 0xFFFFFFFFFFFFFFFFFFFFFFFFFFFFFFFFFFFFFFFF AND CALLER PUSH20 0xFFFFFFFFFFFFFFFFFFFFFFFFFFFFFFFFFFFFFFFF AND EQ PUSH2 0x525 JUMPI PUSH1 0x40 MLOAD PUSH32 0x8C379A000000000000000000000000000000000000000000000000000000000 DUP2 MSTORE PUSH1 0x4 ADD PUSH2 0x51C SWAP1 PUSH2 0xAC1 JUMP JUMPDEST PUSH1 0x40 MLOAD DUP1 SWAP2 SUB SWAP1 REVERT JUMPDEST PUSH1 0x1 ISZERO ISZERO PUSH1 0x4 PUSH0 SWAP1 SLOAD SWAP1 PUSH2 0x100 EXP SWAP1 DIV PUSH1 0xFF AND ISZERO ISZERO EQ PUSH2 0x57A JUMPI PUSH1 0x40 MLOAD PUSH32 0x8C379A000000000000000000000000000000000000000000000000000000000 DUP2 MSTORE PUSH1 0x4 ADD PUSH2 0x571 SWAP1 PUSH2 0xB29 JUMP JUMPDEST PUSH1 0x40 MLOAD DUP1 SWAP2 SUB SWAP1 REVERT JUMPDEST PUSH0 SELFBALANCE SWAP1 POP PUSH0 PUSH1 0x4 PUSH0 PUSH2 0x100 EXP DUP2 SLOAD DUP2 PUSH1 0xFF MUL NOT AND SWAP1 DUP4 ISZERO ISZERO MUL OR SWAP1 SSTORE POP PUSH1 0x1 PUSH0 SWAP1 SLOAD SWAP1 PUSH2 0x100 EXP SWAP1 DIV PUSH20 0xFFFFFFFFFFFFFFFFFFFFFFFFFFFFFFFFFFFFFFFF AND PUSH20 0xFFFFFFFFFFFFFFFFFFFFFFFFFFFFFFFFFFFFFFFF AND PUSH2 0x8FC DUP3 SWAP1 DUP2 ISZERO MUL SWAP1 PUSH1 0x40 MLOAD PUSH0 PUSH1 0x40 MLOAD DUP1 DUP4 SUB DUP2 DUP6 DUP9 DUP9 CALL SWAP4 POP POP POP POP ISZERO DUP1 ISZERO PUSH2 0x5FB JUMPI RETURNDATASIZE PUSH0 PUSH0 RETURNDATACOPY RETURNDATASIZE PUSH0 REVERT JUMPDEST POP POP JUMP JUMPDEST PUSH1 0x2 PUSH0 SWAP1 SLOAD SWAP1 PUSH2 0x100 EXP SWAP1 DIV PUSH20 0xFFFFFFFFFFFFFFFFFFFFFFFFFFFFFFFFFFFFFFFF AND DUP2 JUMP JUMPDEST PUSH1 0x4 PUSH0 SWAP1 SLOAD SWAP1 PUSH2 0x100 EXP SWAP1 DIV PUSH1 0xFF AND DUP2 JUMP JUMPDEST PUSH1 0x3 SLOAD DUP2 JUMP JUMPDEST PUSH0 PUSH0 REVERT JUMPDEST PUSH0 PUSH20 0xFFFFFFFFFFFFFFFFFFFFFFFFFFFFFFFFFFFFFFFF DUP3 AND SWAP1 POP SWAP2 SWAP1 POP JUMP JUMPDEST PUSH0 PUSH2 0x669 DUP3 PUSH2 0x640 JUMP JUMPDEST SWAP1 POP SWAP2 SWAP1 POP JUMP JUMPDEST PUSH2 0x679 DUP2 PUSH2 0x65F JUMP JUMPDEST DUP2 EQ PUSH2 0x683 JUMPI PUSH0 PUSH0 REVERT JUMPDEST POP JUMP JUMPDEST PUSH0 DUP2 CALLDATALOAD SWAP1 POP PUSH2 0x694 DUP2 PUSH2 0x670 JUMP JUMPDEST SWAP3 SWAP2 POP POP JUMP JUMPDEST PUSH0 PUSH1 0x20 DUP3 DUP5 SUB SLT ISZERO PUSH2 0x6AF JUMPI PUSH2 0x6AE PUSH2 0x63C JUMP JUMPDEST JUMPDEST PUSH0 PUSH2 0x6BC DUP5 DUP3 DUP6 ADD PUSH2 0x686 JUMP JUMPDEST SWAP2 POP POP SWAP3 SWAP2 POP POP JUMP JUMPDEST PUSH0 DUP2 MLOAD SWAP1 POP SWAP2 SWAP1 POP JUMP JUMPDEST PUSH0 DUP3 DUP3 MSTORE PUSH1 0x20 DUP3 ADD SWAP1 POP SWAP3 SWAP2 POP POP JUMP JUMPDEST DUP3 DUP2 DUP4 MCOPY PUSH0 DUP4 DUP4 ADD MSTORE POP POP POP JUMP JUMPDEST PUSH0 PUSH1 0x1F NOT PUSH1 0x1F DUP4 ADD AND SWAP1 POP SWAP2 SWAP1 POP JUMP JUMPDEST PUSH0 PUSH2 0x707 DUP3 PUSH2 0x6C5 JUMP JUMPDEST PUSH2 0x711 DUP2 DUP6 PUSH2 0x6CF JUMP JUMPDEST SWAP4 POP PUSH2 0x721 DUP2 DUP6 PUSH1 0x20 DUP7 ADD PUSH2 0x6DF JUMP JUMPDEST PUSH2 0x72A DUP2 PUSH2 0x6ED JUMP JUMPDEST DUP5 ADD SWAP2 POP POP SWAP3 SWAP2 POP POP JUMP JUMPDEST PUSH0 PUSH1 0x20 DUP3 ADD SWAP1 POP DUP2 DUP2 SUB PUSH0 DUP4 ADD MSTORE PUSH2 0x74D DUP2 DUP5 PUSH2 0x6FD JUMP JUMPDEST SWAP1 POP SWAP3 SWAP2 POP POP JUMP JUMPDEST PUSH2 0x75E DUP2 PUSH2 0x65F JUMP JUMPDEST DUP3 MSTORE POP POP JUMP JUMPDEST PUSH0 PUSH1 0x20 DUP3 ADD SWAP1 POP PUSH2 0x777 PUSH0 DUP4 ADD DUP5 PUSH2 0x755 JUMP JUMPDEST SWAP3 SWAP2 POP POP JUMP JUMPDEST PUSH0 DUP2 ISZERO ISZERO SWAP1 POP SWAP2 SWAP1 POP JUMP JUMPDEST PUSH2 0x791 DUP2 PUSH2 0x77D JUMP JUMPDEST DUP3 MSTORE POP POP JUMP JUMPDEST PUSH0 PUSH1 0x20 DUP3 ADD SWAP1 POP PUSH2 0x7AA PUSH0 DUP4 ADD DUP5 PUSH2 0x788 JUMP JUMPDEST SWAP3 SWAP2 POP POP JUMP JUMPDEST PUSH0 DUP2 SWAP1 POP SWAP2 SWAP1 POP JUMP JUMPDEST PUSH2 0x7C2 DUP2 PUSH2 0x7B0 JUMP JUMPDEST DUP3 MSTORE POP POP JUMP JUMPDEST PUSH0 PUSH1 0x20 DUP3 ADD SWAP1 POP PUSH2 0x7DB PUSH0 DUP4 ADD DUP5 PUSH2 0x7B9 JUMP JUMPDEST SWAP3 SWAP2 POP POP JUMP JUMPDEST PUSH32 0x5365756C206C652070726F70726965746169726520706575742064657369676E PUSH0 DUP3 ADD MSTORE PUSH32 0x6572206C65206C6F636174616972650000000000000000000000000000000000 PUSH1 0x20 DUP3 ADD MSTORE POP JUMP JUMPDEST PUSH0 PUSH2 0x83B PUSH1 0x2F DUP4 PUSH2 0x6CF JUMP JUMPDEST SWAP2 POP PUSH2 0x846 DUP3 PUSH2 0x7E1 JUMP JUMPDEST PUSH1 0x40 DUP3 ADD SWAP1 POP SWAP2 SWAP1 POP JUMP JUMPDEST PUSH0 PUSH1 0x20 DUP3 ADD SWAP1 POP DUP2 DUP2 SUB PUSH0 DUP4 ADD MSTORE PUSH2 0x868 DUP2 PUSH2 0x82F JUMP JUMPDEST SWAP1 POP SWAP2 SWAP1 POP JUMP JUMPDEST PUSH32 0x5365756C206C65206C6F63617461697265207065757420706179657200000000 PUSH0 DUP3 ADD MSTORE POP JUMP JUMPDEST PUSH0 PUSH2 0x8A3 PUSH1 0x1C DUP4 PUSH2 0x6CF JUMP JUMPDEST SWAP2 POP PUSH2 0x8AE DUP3 PUSH2 0x86F JUMP JUMPDEST PUSH1 0x20 DUP3 ADD SWAP1 POP SWAP2 SWAP1 POP JUMP JUMPDEST PUSH0 PUSH1 0x20 DUP3 ADD SWAP1 POP DUP2 DUP2 SUB PUSH0 DUP4 ADD MSTORE PUSH2 0x8D0 DUP2 PUSH2 0x897 JUMP JUMPDEST SWAP1 POP SWAP2 SWAP1 POP JUMP JUMPDEST PUSH32 0x4C65206D6F6E74616E7420646F697420636F72726573706F6E64726520617520 PUSH0 DUP3 ADD MSTORE PUSH32 0x6C6F796572000000000000000000000000000000000000000000000000000000 PUSH1 0x20 DUP3 ADD MSTORE POP JUMP JUMPDEST PUSH0 PUSH2 0x931 PUSH1 0x25 DUP4 PUSH2 0x6CF JUMP JUMPDEST SWAP2 POP PUSH2 0x93C DUP3 PUSH2 0x8D7 JUMP JUMPDEST PUSH1 0x40 DUP3 ADD SWAP1 POP SWAP2 SWAP1 POP JUMP JUMPDEST PUSH0 PUSH1 0x20 DUP3 ADD SWAP1 POP DUP2 DUP2 SUB PUSH0 DUP4 ADD MSTORE PUSH2 0x95E DUP2 PUSH2 0x925 JUMP JUMPDEST SWAP1 POP SWAP2 SWAP1 POP JUMP JUMPDEST PUSH32 0x4C6F7965722064656A6120706179650000000000000000000000000000000000 PUSH0 DUP3 ADD MSTORE POP JUMP JUMPDEST PUSH0 PUSH2 0x999 PUSH1 0xF DUP4 PUSH2 0x6CF JUMP JUMPDEST SWAP2 POP PUSH2 0x9A4 DUP3 PUSH2 0x965 JUMP JUMPDEST PUSH1 0x20 DUP3 ADD SWAP1 POP SWAP2 SWAP1 POP JUMP JUMPDEST PUSH0 PUSH1 0x20 DUP3 ADD SWAP1 POP DUP2 DUP2 SUB PUSH0 DUP4 ADD MSTORE PUSH2 0x9C6 DUP2 PUSH2 0x98D JUMP JUMPDEST SWAP1 POP SWAP2 SWAP1 POP JUMP JUMPDEST PUSH0 PUSH1 0x40 DUP3 ADD SWAP1 POP PUSH2 0x9E0 PUSH0 DUP4 ADD DUP6 PUSH2 0x755 JUMP JUMPDEST PUSH2 0x9ED PUSH1 0x20 DUP4 ADD DUP5 PUSH2 0x7B9 JUMP JUMPDEST SWAP4 SWAP3 POP POP POP JUMP JUMPDEST PUSH32 0x4E487B7100000000000000000000000000000000000000000000000000000000 PUSH0 MSTORE PUSH1 0x22 PUSH1 0x4 MSTORE PUSH1 0x24 PUSH0 REVERT JUMPDEST PUSH0 PUSH1 0x2 DUP3 DIV SWAP1 POP PUSH1 0x1 DUP3 AND DUP1 PUSH2 0xA38 JUMPI PUSH1 0x7F DUP3 AND SWAP2 POP JUMPDEST PUSH1 0x20 DUP3 LT DUP2 SUB PUSH2 0xA4B JUMPI PUSH2 0xA4A PUSH2 0x9F4 JUMP JUMPDEST JUMPDEST POP SWAP2 SWAP1 POP JUMP JUMPDEST PUSH32 0x5365756C206C652070726F707269657461697265207065757420726574697265 PUSH0 DUP3 ADD MSTORE PUSH32 0x7200000000000000000000000000000000000000000000000000000000000000 PUSH1 0x20 DUP3 ADD MSTORE POP JUMP JUMPDEST PUSH0 PUSH2 0xAAB PUSH1 0x21 DUP4 PUSH2 0x6CF JUMP JUMPDEST SWAP2 POP PUSH2 0xAB6 DUP3 PUSH2 0xA51 JUMP JUMPDEST PUSH1 0x40 DUP3 ADD SWAP1 POP SWAP2 SWAP1 POP JUMP JUMPDEST PUSH0 PUSH1 0x20 DUP3 ADD SWAP1 POP DUP2 DUP2 SUB PUSH0 DUP4 ADD MSTORE PUSH2 0xAD8 DUP2 PUSH2 0xA9F JUMP JUMPDEST SWAP1 POP SWAP2 SWAP1 POP JUMP JUMPDEST PUSH32 0x4C65206C6F796572206E27612070617320656E636F7265206574652070617965 PUSH0 DUP3 ADD MSTORE POP JUMP JUMPDEST PUSH0 PUSH2 0xB13 PUSH1 0x20 DUP4 PUSH2 0x6CF JUMP JUMPDEST SWAP2 POP PUSH2 0xB1E DUP3 PUSH2 0xADF JUMP JUMPDEST PUSH1 0x20 DUP3 ADD SWAP1 POP SWAP2 SWAP1 POP JUMP JUMPDEST PUSH0 PUSH1 0x20 DUP3 ADD SWAP1 POP DUP2 DUP2 SUB PUSH0 DUP4 ADD MSTORE PUSH2 0xB40 DUP2 PUSH2 0xB07 JUMP JUMPDEST SWAP1 POP SWAP2 SWAP1 POP JUMP INVALID LOG2 PUSH5 0x6970667358 0x22 SLT KECCAK256 KECCAK256 0xD8 NUMBER 0xA5 LOG3 0xCB RETURN 0xCD PUSH9 0xE6C32C82DA45DE2847 CLZ 0xE8 SAR 0x28 PUSH8 0xCE4D4173F668B44F MOD PUSH5 0x736F6C6343 STOP ADDMOD 0x22 STOP CALLER "
				},
				"gasEstimates": {
					"creation": {
						"codeDepositCost": "588200",
						"executionCost": "infinite",
						"totalCost": "infinite"
					},
					"external": {
						"definirLocataire(address)": "26885",
						"locataire()": "2530",
						"loyer()": "2491",
						"loyerPaye()": "2510",
						"nomContrat()": "infinite",
						"payerLoyer()": "32460",
						"proprietaire()": "2575",
						"retirerLoyer()": "infinite"
					}
				},
				"methodIdentifiers": {
					"definirLocataire(address)": "0b01e57c",
					"locataire()": "b06e7d62",
					"loyer()": "b947172f",
					"loyerPaye()": "b3a4aebf",
					"nomContrat()": "6c9e012e",
					"payerLoyer()": "24be4cc1",
					"proprietaire()": "79583ee5",
					"retirerLoyer()": "8f154697"
				}
			},
			"storageLayout": {
				"storage": [
					{
						"astId": 4,
						"contract": "contracts/ContratBail.sol:ContratBail",
						"label": "nomContrat",
						"offset": 0,
						"slot": "0",
						"type": "t_string_storage"
					},
					{
						"astId": 6,
						"contract": "contracts/ContratBail.sol:ContratBail",
						"label": "proprietaire",
						"offset": 0,
						"slot": "1",
						"type": "t_address"
					},
					{
						"astId": 8,
						"contract": "contracts/ContratBail.sol:ContratBail",
						"label": "locataire",
						"offset": 0,
						"slot": "2",
						"type": "t_address"
					},
					{
						"astId": 16,
						"contract": "contracts/ContratBail.sol:ContratBail",
						"label": "loyer",
						"offset": 0,
						"slot": "3",
						"type": "t_uint256"
					},
					{
						"astId": 18,
						"contract": "contracts/ContratBail.sol:ContratBail",
						"label": "loyerPaye",
						"offset": 0,
						"slot": "4",
						"type": "t_bool"
					}
				],
				"types": {
					"t_address": {
						"encoding": "inplace",
						"label": "address",
						"numberOfBytes": "20"
					},
					"t_bool": {
						"encoding": "inplace",
						"label": "bool",
						"numberOfBytes": "1"
					},
					"t_string_storage": {
						"encoding": "bytes",
						"label": "string",
						"numberOfBytes": "32"
					},
					"t_uint256": {
						"encoding": "inplace",
						"label": "uint256",
						"numberOfBytes": "32"
					}
				}
			},
			"userdoc": {
				"kind": "user",
				"methods": {},
				"version": 1
			}
		}
	}
}